{
  "_format": "hh-sol-artifact-1",
  "contractName": "BaseArena",
  "sourceName": "contracts/BaseArena.sol",
  "abi": [
    {
      "inputs": [],
      "stateMutability": "nonpayable",
      "type": "constructor"
    },
    {
      "inputs": [
        {
          "internalType": "address",
          "name": "sender",
          "type": "address"
        },
        {
          "internalType": "uint256",
          "name": "tokenId",
          "type": "uint256"
        },
        {
          "internalType": "address",
          "name": "owner",
          "type": "address"
        }
      ],
      "name": "ERC721IncorrectOwner",
      "type": "error"
    },
    {
      "inputs": [
        {
          "internalType": "address",
          "name": "operator",
          "type": "address"
        },
        {
          "internalType": "uint256",
          "name": "tokenId",
          "type": "uint256"
        }
      ],
      "name": "ERC721InsufficientApproval",
      "type": "error"
    },
    {
      "inputs": [
        {
          "internalType": "address",
          "name": "approver",
          "type": "address"
        }
      ],
      "name": "ERC721InvalidApprover",
      "type": "error"
    },
    {
      "inputs": [
        {
          "internalType": "address",
          "name": "operator",
          "type": "address"
        }
      ],
      "name": "ERC721InvalidOperator",
      "type": "error"
    },
    {
      "inputs": [
        {
          "internalType": "address",
          "name": "owner",
          "type": "address"
        }
      ],
      "name": "ERC721InvalidOwner",
      "type": "error"
    },
    {
      "inputs": [
        {
          "internalType": "address",
          "name": "receiver",
          "type": "address"
        }
      ],
      "name": "ERC721InvalidReceiver",
      "type": "error"
    },
    {
      "inputs": [
        {
          "internalType": "address",
          "name": "sender",
          "type": "address"
        }
      ],
      "name": "ERC721InvalidSender",
      "type": "error"
    },
    {
      "inputs": [
        {
          "internalType": "uint256",
          "name": "tokenId",
          "type": "uint256"
        }
      ],
      "name": "ERC721NonexistentToken",
      "type": "error"
    },
    {
      "inputs": [
        {
          "internalType": "address",
          "name": "owner",
          "type": "address"
        }
      ],
      "name": "OwnableInvalidOwner",
      "type": "error"
    },
    {
      "inputs": [
        {
          "internalType": "address",
          "name": "account",
          "type": "address"
        }
      ],
      "name": "OwnableUnauthorizedAccount",
      "type": "error"
    },
    {
      "anonymous": false,
      "inputs": [
        {
          "indexed": true,
          "internalType": "address",
          "name": "owner",
          "type": "address"
        },
        {
          "indexed": true,
          "internalType": "address",
          "name": "approved",
          "type": "address"
        },
        {
          "indexed": true,
          "internalType": "uint256",
          "name": "tokenId",
          "type": "uint256"
        }
      ],
      "name": "Approval",
      "type": "event"
    },
    {
      "anonymous": false,
      "inputs": [
        {
          "indexed": true,
          "internalType": "address",
          "name": "owner",
          "type": "address"
        },
        {
          "indexed": true,
          "internalType": "address",
          "name": "operator",
          "type": "address"
        },
        {
          "indexed": false,
          "internalType": "bool",
          "name": "approved",
          "type": "bool"
        }
      ],
      "name": "ApprovalForAll",
      "type": "event"
    },
    {
      "anonymous": false,
      "inputs": [
        {
          "indexed": false,
          "internalType": "uint256",
          "name": "_fromTokenId",
          "type": "uint256"
        },
        {
          "indexed": false,
          "internalType": "uint256",
          "name": "_toTokenId",
          "type": "uint256"
        }
      ],
      "name": "BatchMetadataUpdate",
      "type": "event"
    },
    {
      "anonymous": false,
      "inputs": [
        {
          "indexed": false,
          "internalType": "uint256",
          "name": "_tokenId",
          "type": "uint256"
        }
      ],
      "name": "MetadataUpdate",
      "type": "event"
    },
    {
      "anonymous": false,
      "inputs": [
        {
          "indexed": true,
          "internalType": "address",
          "name": "previousOwner",
          "type": "address"
        },
        {
          "indexed": true,
          "internalType": "address",
          "name": "newOwner",
          "type": "address"
        }
      ],
      "name": "OwnershipTransferred",
      "type": "event"
    },
    {
      "anonymous": false,
      "inputs": [
        {
          "indexed": true,
          "internalType": "address",
          "name": "from",
          "type": "address"
        },
        {
          "indexed": true,
          "internalType": "address",
          "name": "to",
          "type": "address"
        },
        {
          "indexed": true,
          "internalType": "uint256",
          "name": "tokenId",
          "type": "uint256"
        }
      ],
      "name": "Transfer",
      "type": "event"
    },
    {
      "anonymous": false,
      "inputs": [
        {
          "indexed": false,
          "internalType": "address",
          "name": "to",
          "type": "address"
        },
        {
          "indexed": false,
          "internalType": "string",
          "name": "uri",
          "type": "string"
        }
      ],
      "name": "mint",
      "type": "event"
    },
    {
      "anonymous": false,
      "inputs": [
        {
          "indexed": false,
          "internalType": "address",
          "name": "user",
          "type": "address"
        },
        {
          "indexed": false,
          "internalType": "uint256",
          "name": "score",
          "type": "uint256"
        }
      ],
      "name": "reward_add",
      "type": "event"
    },
    {
      "inputs": [
        {
          "internalType": "address",
          "name": "",
          "type": "address"
        }
      ],
      "name": "AIResponse",
      "outputs": [
        {
          "internalType": "string",
          "name": "",
          "type": "string"
        }
      ],
      "stateMutability": "view",
      "type": "function"
    },
    {
      "inputs": [
        {
          "internalType": "uint256",
          "name": "",
          "type": "uint256"
        }
      ],
      "name": "all_users",
      "outputs": [
        {
          "internalType": "address",
          "name": "",
          "type": "address"
        }
      ],
      "stateMutability": "view",
      "type": "function"
    },
    {
      "inputs": [
        {
          "internalType": "address",
          "name": "to",
          "type": "address"
        },
        {
          "internalType": "uint256",
          "name": "tokenId",
          "type": "uint256"
        }
      ],
      "name": "approve",
      "outputs": [],
      "stateMutability": "nonpayable",
      "type": "function"
    },
    {
      "inputs": [
        {
          "internalType": "address",
          "name": "owner",
          "type": "address"
        }
      ],
      "name": "balanceOf",
      "outputs": [
        {
          "internalType": "uint256",
          "name": "",
          "type": "uint256"
        }
      ],
      "stateMutability": "view",
      "type": "function"
    },
    {
      "inputs": [
        {
          "internalType": "address",
          "name": "",
          "type": "address"
        },
        {
          "internalType": "uint256",
          "name": "",
          "type": "uint256"
        }
      ],
      "name": "games_of_user",
      "outputs": [
        {
          "internalType": "address",
          "name": "owner",
          "type": "address"
        },
        {
          "internalType": "uint256",
          "name": "reputation_score",
          "type": "uint256"
        },
        {
          "internalType": "uint256",
          "name": "ai_rewards",
          "type": "uint256"
        },
        {
          "internalType": "string",
          "name": "image_asset",
          "type": "string"
        },
        {
          "internalType": "string",
          "name": "doppleganger_asset",
          "type": "string"
        },
        {
          "internalType": "uint256",
          "name": "tokenId",
          "type": "uint256"
        }
      ],
      "stateMutability": "view",
      "type": "function"
    },
    {
      "inputs": [],
      "name": "getAllUsers",
      "outputs": [
        {
          "internalType": "address[]",
          "name": "",
          "type": "address[]"
        }
      ],
      "stateMutability": "view",
      "type": "function"
    },
    {
      "inputs": [
        {
          "internalType": "uint256",
          "name": "tokenId",
          "type": "uint256"
        }
      ],
      "name": "getApproved",
      "outputs": [
        {
          "internalType": "address",
          "name": "",
          "type": "address"
        }
      ],
      "stateMutability": "view",
      "type": "function"
    },
    {
      "inputs": [
        {
          "internalType": "address",
          "name": "user",
          "type": "address"
        }
      ],
      "name": "getNFTs",
      "outputs": [
        {
          "components": [
            {
              "internalType": "address",
              "name": "owner",
              "type": "address"
            },
            {
              "internalType": "uint256",
              "name": "reputation_score",
              "type": "uint256"
            },
            {
              "internalType": "uint256",
              "name": "ai_rewards",
              "type": "uint256"
            },
            {
              "internalType": "string",
              "name": "image_asset",
              "type": "string"
            },
            {
              "internalType": "string",
              "name": "doppleganger_asset",
              "type": "string"
            },
            {
              "internalType": "uint256",
              "name": "tokenId",
              "type": "uint256"
            }
          ],
          "internalType": "struct BaseArena.BARNNFT[]",
          "name": "",
          "type": "tuple[]"
        }
      ],
      "stateMutability": "view",
      "type": "function"
    },
    {
      "inputs": [
        {
          "internalType": "address",
          "name": "owner",
          "type": "address"
        },
        {
          "internalType": "address",
          "name": "operator",
          "type": "address"
        }
      ],
      "name": "isApprovedForAll",
      "outputs": [
        {
          "internalType": "bool",
          "name": "",
          "type": "bool"
        }
      ],
      "stateMutability": "view",
      "type": "function"
    },
    {
      "inputs": [],
      "name": "name",
      "outputs": [
        {
          "internalType": "string",
          "name": "",
          "type": "string"
        }
      ],
      "stateMutability": "view",
      "type": "function"
    },
    {
      "inputs": [],
      "name": "owner",
      "outputs": [
        {
          "internalType": "address",
          "name": "",
          "type": "address"
        }
      ],
      "stateMutability": "view",
      "type": "function"
    },
    {
      "inputs": [
        {
          "internalType": "uint256",
          "name": "tokenId",
          "type": "uint256"
        }
      ],
      "name": "ownerOf",
      "outputs": [
        {
          "internalType": "address",
          "name": "",
          "type": "address"
        }
      ],
      "stateMutability": "view",
      "type": "function"
    },
    {
      "inputs": [
        {
          "internalType": "address",
          "name": "",
          "type": "address"
        }
      ],
      "name": "percentile",
      "outputs": [
        {
          "internalType": "uint256",
          "name": "",
          "type": "uint256"
        }
      ],
      "stateMutability": "view",
      "type": "function"
    },
    {
      "inputs": [],
      "name": "renounceOwnership",
      "outputs": [],
      "stateMutability": "nonpayable",
      "type": "function"
    },
    {
      "inputs": [
        {
          "internalType": "address",
          "name": "",
          "type": "address"
        }
      ],
      "name": "reputation_score",
      "outputs": [
        {
          "internalType": "uint256",
          "name": "",
          "type": "uint256"
        }
      ],
      "stateMutability": "view",
      "type": "function"
    },
    {
      "inputs": [
        {
          "internalType": "address",
          "name": "",
          "type": "address"
        }
      ],
      "name": "rewards_earned",
      "outputs": [
        {
          "internalType": "uint256",
          "name": "",
          "type": "uint256"
        }
      ],
      "stateMutability": "view",
      "type": "function"
    },
    {
      "inputs": [
        {
          "internalType": "uint256",
          "name": "rewards_earnedUser",
          "type": "uint256"
        },
        {
          "internalType": "string",
          "name": "uri",
          "type": "string"
        },
        {
          "internalType": "string",
          "name": "dopplegangeruri",
          "type": "string"
        },
        {
          "internalType": "address",
          "name": "to",
          "type": "address"
        }
      ],
      "name": "safeMint",
      "outputs": [],
      "stateMutability": "nonpayable",
      "type": "function"
    },
    {
      "inputs": [
        {
          "internalType": "address",
          "name": "from",
          "type": "address"
        },
        {
          "internalType": "address",
          "name": "to",
          "type": "address"
        },
        {
          "internalType": "uint256",
          "name": "tokenId",
          "type": "uint256"
        }
      ],
      "name": "safeTransferFrom",
      "outputs": [],
      "stateMutability": "nonpayable",
      "type": "function"
    },
    {
      "inputs": [
        {
          "internalType": "address",
          "name": "from",
          "type": "address"
        },
        {
          "internalType": "address",
          "name": "to",
          "type": "address"
        },
        {
          "internalType": "uint256",
          "name": "tokenId",
          "type": "uint256"
        },
        {
          "internalType": "bytes",
          "name": "data",
          "type": "bytes"
        }
      ],
      "name": "safeTransferFrom",
      "outputs": [],
      "stateMutability": "nonpayable",
      "type": "function"
    },
    {
      "inputs": [
        {
          "internalType": "address",
          "name": "user",
          "type": "address"
        },
        {
          "internalType": "string",
          "name": "data",
          "type": "string"
        }
      ],
      "name": "saveResponse",
      "outputs": [],
      "stateMutability": "nonpayable",
      "type": "function"
    },
    {
      "inputs": [
        {
          "internalType": "address",
          "name": "operator",
          "type": "address"
        },
        {
          "internalType": "bool",
          "name": "approved",
          "type": "bool"
        }
      ],
      "name": "setApprovalForAll",
      "outputs": [],
      "stateMutability": "nonpayable",
      "type": "function"
    },
    {
      "inputs": [
        {
          "internalType": "bytes4",
          "name": "interfaceId",
          "type": "bytes4"
        }
      ],
      "name": "supportsInterface",
      "outputs": [
        {
          "internalType": "bool",
          "name": "",
          "type": "bool"
        }
      ],
      "stateMutability": "view",
      "type": "function"
    },
    {
      "inputs": [],
      "name": "symbol",
      "outputs": [
        {
          "internalType": "string",
          "name": "",
          "type": "string"
        }
      ],
      "stateMutability": "view",
      "type": "function"
    },
    {
      "inputs": [],
      "name": "tokenId",
      "outputs": [
        {
          "internalType": "uint256",
          "name": "",
          "type": "uint256"
        }
      ],
      "stateMutability": "view",
      "type": "function"
    },
    {
      "inputs": [
        {
          "internalType": "uint256",
          "name": "tokenId",
          "type": "uint256"
        }
      ],
      "name": "tokenURI",
      "outputs": [
        {
          "internalType": "string",
          "name": "",
          "type": "string"
        }
      ],
      "stateMutability": "view",
      "type": "function"
    },
    {
      "inputs": [
        {
          "internalType": "address",
          "name": "from",
          "type": "address"
        },
        {
          "internalType": "address",
          "name": "to",
          "type": "address"
        },
        {
          "internalType": "uint256",
          "name": "tokenId",
          "type": "uint256"
        }
      ],
      "name": "transferFrom",
      "outputs": [],
      "stateMutability": "nonpayable",
      "type": "function"
    },
    {
      "inputs": [
        {
          "internalType": "address",
          "name": "newOwner",
          "type": "address"
        }
      ],
      "name": "transferOwnership",
      "outputs": [],
      "stateMutability": "nonpayable",
      "type": "function"
    }
  ],
  "bytecode": "0x608060405234801561001057600080fd5b50336040518060400160405280600981526020017f426173654172656e6100000000000000000000000000000000000000000000008152506040518060400160405280600481526020017f4241524e00000000000000000000000000000000000000000000000000000000815250816000908161008d919061043d565b50806001908161009d919061043d565b505050600073ffffffffffffffffffffffffffffffffffffffff168173ffffffffffffffffffffffffffffffffffffffff16036101125760006040517f1e4fbdf70000000000000000000000000000000000000000000000000000000081526004016101099190610550565b60405180910390fd5b6101218161012760201b60201c565b5061056b565b6000600760009054906101000a900473ffffffffffffffffffffffffffffffffffffffff16905081600760006101000a81548173ffffffffffffffffffffffffffffffffffffffff021916908373ffffffffffffffffffffffffffffffffffffffff1602179055508173ffffffffffffffffffffffffffffffffffffffff168173ffffffffffffffffffffffffffffffffffffffff167f8be0079c531659141344cd1fd0a4f28419497f9722a3daafe3b4186f6b6457e060405160405180910390a35050565b600081519050919050565b7f4e487b7100000000000000000000000000000000000000000000000000000000600052604160045260246000fd5b7f4e487b7100000000000000000000000000000000000000000000000000000000600052602260045260246000fd5b6000600282049050600182168061026e57607f821691505b60208210810361028157610280610227565b5b50919050565b60008190508160005260206000209050919050565b60006020601f8301049050919050565b600082821b905092915050565b6000600883026102e97fffffffffffffffffffffffffffffffffffffffffffffffffffffffffffffffff826102ac565b6102f386836102ac565b95508019841693508086168417925050509392505050565b6000819050919050565b6000819050919050565b600061033a6103356103308461030b565b610315565b61030b565b9050919050565b6000819050919050565b6103548361031f565b61036861036082610341565b8484546102b9565b825550505050565b600090565b61037d610370565b61038881848461034b565b505050565b5b818110156103ac576103a1600082610375565b60018101905061038e565b5050565b601f8211156103f1576103c281610287565b6103cb8461029c565b810160208510156103da578190505b6103ee6103e68561029c565b83018261038d565b50505b505050565b600082821c905092915050565b6000610414600019846008026103f6565b1980831691505092915050565b600061042d8383610403565b9150826002028217905092915050565b610446826101ed565b67ffffffffffffffff81111561045f5761045e6101f8565b5b6104698254610256565b6104748282856103b0565b600060209050601f8311600181146104a75760008415610495578287015190505b61049f8582610421565b865550610507565b601f1984166104b586610287565b60005b828110156104dd578489015182556001820191506020850194506020810190506104b8565b868310156104fa57848901516104f6601f891682610403565b8355505b6001600288020188555050505b505050505050565b600073ffffffffffffffffffffffffffffffffffffffff82169050919050565b600061053a8261050f565b9050919050565b61054a8161052f565b82525050565b60006020820190506105656000830184610541565b92915050565b6135d98061057a6000396000f3fe608060405234801561001057600080fd5b50600436106101a95760003560e01c806370a08231116100f9578063b88d4fde11610097578063e2842d7911610071578063e2842d7914610509578063e96551ca14610527578063e985e9c514610557578063f2fde38b14610587576101a9565b8063b88d4fde14610488578063c87b56dd146104a4578063cc01706a146104d4576101a9565b80638da5cb5b116100d35780638da5cb5b1461041457806395d89b4114610432578063a22cb46514610450578063a46b34d31461046c576101a9565b806370a08231146103aa578063715018a6146103da57806382183fb0146103e4576101a9565b806317d70f7c11610166578063535a1af511610140578063535a1af5146102ea5780636352211e1461031a57806367dac2a01461034a5780636b3e3b311461037a576101a9565b806317d70f7c1461029457806323b872dd146102b257806342842e0e146102ce576101a9565b806301ffc9a7146101ae57806306fdde03146101de578063081812fc146101fc578063083755301461022c578063095ea7b314610248578063120f9ec214610264575b600080fd5b6101c860048036038101906101c39190612612565b6105a3565b6040516101d5919061265a565b60405180910390f35b6101e6610604565b6040516101f39190612705565b60405180910390f35b6102166004803603810190610211919061275d565b610696565b60405161022391906127cb565b60405180910390f35b61024660048036038101906102419190612947565b6106b2565b005b610262600480360381019061025d91906129a3565b610703565b005b61027e600480360381019061027991906129e3565b610719565b60405161028b9190612a1f565b60405180910390f35b61029c610731565b6040516102a99190612a1f565b60405180910390f35b6102cc60048036038101906102c79190612a3a565b610737565b005b6102e860048036038101906102e39190612a3a565b610839565b005b61030460048036038101906102ff91906129e3565b610859565b6040516103119190612a1f565b60405180910390f35b610334600480360381019061032f919061275d565b610871565b60405161034191906127cb565b60405180910390f35b610364600480360381019061035f919061275d565b610883565b60405161037191906127cb565b60405180910390f35b610394600480360381019061038f91906129e3565b6108c2565b6040516103a19190612705565b60405180910390f35b6103c460048036038101906103bf91906129e3565b610962565b6040516103d19190612a1f565b60405180910390f35b6103e2610a1c565b005b6103fe60048036038101906103f991906129e3565b610a30565b60405161040b9190612c47565b60405180910390f35b61041c610c66565b60405161042991906127cb565b60405180910390f35b61043a610c90565b6040516104479190612705565b60405180910390f35b61046a60048036038101906104659190612c95565b610d22565b005b61048660048036038101906104819190612cd5565b610d38565b005b6104a2600480360381019061049d9190612e15565b6110b4565b005b6104be60048036038101906104b9919061275d565b6110d9565b6040516104cb9190612705565b60405180910390f35b6104ee60048036038101906104e991906129a3565b6111ec565b60405161050096959493929190612e98565b60405180910390f35b610511611375565b60405161051e9190612fb6565b60405180910390f35b610541600480360381019061053c91906129e3565b611403565b60405161054e9190612a1f565b60405180910390f35b610571600480360381019061056c9190612fd8565b61141b565b60405161057e919061265a565b60405180910390f35b6105a1600480360381019061059c91906129e3565b6114af565b005b6000634906490660e01b7bffffffffffffffffffffffffffffffffffffffffffffffffffffffff1916827bffffffffffffffffffffffffffffffffffffffffffffffffffffffff191614806105fd57506105fc82611535565b5b9050919050565b60606000805461061390613047565b80601f016020809104026020016040519081016040528092919081815260200182805461063f90613047565b801561068c5780601f106106615761010080835404028352916020019161068c565b820191906000526020600020905b81548152906001019060200180831161066f57829003601f168201915b5050505050905090565b60006106a182611617565b506106ab8261169f565b9050919050565b80600c60008473ffffffffffffffffffffffffffffffffffffffff1673ffffffffffffffffffffffffffffffffffffffff16815260200190815260200160002090816106fe9190613224565b505050565b61071582826107106116dc565b6116e4565b5050565b60096020528060005260406000206000915090505481565b600d5481565b600073ffffffffffffffffffffffffffffffffffffffff168273ffffffffffffffffffffffffffffffffffffffff16036107a95760006040517f64a0ae920000000000000000000000000000000000000000000000000000000081526004016107a091906127cb565b60405180910390fd5b60006107bd83836107b86116dc565b6116f6565b90508373ffffffffffffffffffffffffffffffffffffffff168173ffffffffffffffffffffffffffffffffffffffff1614610833578382826040517f64283d7b00000000000000000000000000000000000000000000000000000000815260040161082a939291906132f6565b60405180910390fd5b50505050565b610854838383604051806020016040528060008152506110b4565b505050565b600a6020528060005260406000206000915090505481565b600061087c82611617565b9050919050565b600e818154811061089357600080fd5b906000526020600020016000915054906101000a900473ffffffffffffffffffffffffffffffffffffffff1681565b600c60205280600052604060002060009150905080546108e190613047565b80601f016020809104026020016040519081016040528092919081815260200182805461090d90613047565b801561095a5780601f1061092f5761010080835404028352916020019161095a565b820191906000526020600020905b81548152906001019060200180831161093d57829003601f168201915b505050505081565b60008073ffffffffffffffffffffffffffffffffffffffff168273ffffffffffffffffffffffffffffffffffffffff16036109d55760006040517f89c62b640000000000000000000000000000000000000000000000000000000081526004016109cc91906127cb565b60405180910390fd5b600360008373ffffffffffffffffffffffffffffffffffffffff1673ffffffffffffffffffffffffffffffffffffffff168152602001908152602001600020549050919050565b610a24611910565b610a2e6000611997565b565b6060600b60008373ffffffffffffffffffffffffffffffffffffffff1673ffffffffffffffffffffffffffffffffffffffff168152602001908152602001600020805480602002602001604051908101604052809291908181526020016000905b82821015610c5b57838290600052602060002090600602016040518060c00160405290816000820160009054906101000a900473ffffffffffffffffffffffffffffffffffffffff1673ffffffffffffffffffffffffffffffffffffffff1673ffffffffffffffffffffffffffffffffffffffff1681526020016001820154815260200160028201548152602001600382018054610b2e90613047565b80601f0160208091040260200160405190810160405280929190818152602001828054610b5a90613047565b8015610ba75780601f10610b7c57610100808354040283529160200191610ba7565b820191906000526020600020905b815481529060010190602001808311610b8a57829003601f168201915b50505050508152602001600482018054610bc090613047565b80601f0160208091040260200160405190810160405280929190818152602001828054610bec90613047565b8015610c395780601f10610c0e57610100808354040283529160200191610c39565b820191906000526020600020905b815481529060010190602001808311610c1c57829003601f168201915b5050505050815260200160058201548152505081526020019060010190610a91565b505050509050919050565b6000600760009054906101000a900473ffffffffffffffffffffffffffffffffffffffff16905090565b606060018054610c9f90613047565b80601f0160208091040260200160405190810160405280929190818152602001828054610ccb90613047565b8015610d185780601f10610ced57610100808354040283529160200191610d18565b820191906000526020600020905b815481529060010190602001808311610cfb57829003601f168201915b5050505050905090565b610d34610d2d6116dc565b8383611a5d565b5050565b6001600860008373ffffffffffffffffffffffffffffffffffffffff1673ffffffffffffffffffffffffffffffffffffffff1681526020019081526020016000206000828254610d88919061335c565b9250508190555083600960008373ffffffffffffffffffffffffffffffffffffffff1673ffffffffffffffffffffffffffffffffffffffff1681526020019081526020016000206000828254610dde919061335c565b92505081905550600d6000815480929190610df890613390565b9190505550610e0981600d54611bcc565b610e15600d5484611bea565b7faf9afc0f33fd1673fe8bd51f1d85f5f1ef542820e72b6b8ddda131df2ac8064d8185604051610e469291906133d8565b60405180910390a17fd0def521cdae71c63ecace61ee5a1cca744cf981e4d6ff45cdd07ec87394aad58184604051610e7f929190613401565b60405180910390a1600e819080600181540180825580915050600190039060005260206000200160009091909190916101000a81548173ffffffffffffffffffffffffffffffffffffffff021916908373ffffffffffffffffffffffffffffffffffffffff16021790555060006040518060c001604052808373ffffffffffffffffffffffffffffffffffffffff168152602001600860008573ffffffffffffffffffffffffffffffffffffffff1673ffffffffffffffffffffffffffffffffffffffff168152602001908152602001600020548152602001600960008573ffffffffffffffffffffffffffffffffffffffff1673ffffffffffffffffffffffffffffffffffffffff168152602001908152602001600020548152602001858152602001848152602001600d548152509050600b60008373ffffffffffffffffffffffffffffffffffffffff1673ffffffffffffffffffffffffffffffffffffffff16815260200190815260200160002081908060018154018082558091505060019003906000526020600020906006020160009091909190915060008201518160000160006101000a81548173ffffffffffffffffffffffffffffffffffffffff021916908373ffffffffffffffffffffffffffffffffffffffff1602179055506020820151816001015560408201518160020155606082015181600301908161108a9190613224565b5060808201518160040190816110a09190613224565b5060a0820151816005015550505050505050565b6110bf848484610737565b6110d36110ca6116dc565b85858585611c46565b50505050565b60606110e482611617565b50600060066000848152602001908152602001600020805461110590613047565b80601f016020809104026020016040519081016040528092919081815260200182805461113190613047565b801561117e5780601f106111535761010080835404028352916020019161117e565b820191906000526020600020905b81548152906001019060200180831161116157829003601f168201915b50505050509050600061118f611df7565b905060008151036111a45781925050506111e7565b6000825111156111d95780826040516020016111c192919061346d565b604051602081830303815290604052925050506111e7565b6111e284611e0e565b925050505b919050565b600b602052816000526040600020818154811061120857600080fd5b9060005260206000209060060201600091509150508060000160009054906101000a900473ffffffffffffffffffffffffffffffffffffffff169080600101549080600201549080600301805461125e90613047565b80601f016020809104026020016040519081016040528092919081815260200182805461128a90613047565b80156112d75780601f106112ac576101008083540402835291602001916112d7565b820191906000526020600020905b8154815290600101906020018083116112ba57829003601f168201915b5050505050908060040180546112ec90613047565b80601f016020809104026020016040519081016040528092919081815260200182805461131890613047565b80156113655780601f1061133a57610100808354040283529160200191611365565b820191906000526020600020905b81548152906001019060200180831161134857829003601f168201915b5050505050908060050154905086565b6060600e8054806020026020016040519081016040528092919081815260200182805480156113f957602002820191906000526020600020905b8160009054906101000a900473ffffffffffffffffffffffffffffffffffffffff1673ffffffffffffffffffffffffffffffffffffffff16815260200190600101908083116113af575b5050505050905090565b60086020528060005260406000206000915090505481565b6000600560008473ffffffffffffffffffffffffffffffffffffffff1673ffffffffffffffffffffffffffffffffffffffff16815260200190815260200160002060008373ffffffffffffffffffffffffffffffffffffffff1673ffffffffffffffffffffffffffffffffffffffff16815260200190815260200160002060009054906101000a900460ff16905092915050565b6114b7611910565b600073ffffffffffffffffffffffffffffffffffffffff168173ffffffffffffffffffffffffffffffffffffffff16036115295760006040517f1e4fbdf700000000000000000000000000000000000000000000000000000000815260040161152091906127cb565b60405180910390fd5b61153281611997565b50565b60007f80ac58cd000000000000000000000000000000000000000000000000000000007bffffffffffffffffffffffffffffffffffffffffffffffffffffffff1916827bffffffffffffffffffffffffffffffffffffffffffffffffffffffff1916148061160057507f5b5e139f000000000000000000000000000000000000000000000000000000007bffffffffffffffffffffffffffffffffffffffffffffffffffffffff1916827bffffffffffffffffffffffffffffffffffffffffffffffffffffffff1916145b80611610575061160f82611e77565b5b9050919050565b60008061162383611ee1565b9050600073ffffffffffffffffffffffffffffffffffffffff168173ffffffffffffffffffffffffffffffffffffffff160361169657826040517f7e27328900000000000000000000000000000000000000000000000000000000815260040161168d9190612a1f565b60405180910390fd5b80915050919050565b60006004600083815260200190815260200160002060009054906101000a900473ffffffffffffffffffffffffffffffffffffffff169050919050565b600033905090565b6116f18383836001611f1e565b505050565b60008061170284611ee1565b9050600073ffffffffffffffffffffffffffffffffffffffff168373ffffffffffffffffffffffffffffffffffffffff1614611744576117438184866120e3565b5b600073ffffffffffffffffffffffffffffffffffffffff168173ffffffffffffffffffffffffffffffffffffffff16146117d557611786600085600080611f1e565b6001600360008373ffffffffffffffffffffffffffffffffffffffff1673ffffffffffffffffffffffffffffffffffffffff168152602001908152602001600020600082825403925050819055505b600073ffffffffffffffffffffffffffffffffffffffff168573ffffffffffffffffffffffffffffffffffffffff1614611858576001600360008773ffffffffffffffffffffffffffffffffffffffff1673ffffffffffffffffffffffffffffffffffffffff168152602001908152602001600020600082825401925050819055505b846002600086815260200190815260200160002060006101000a81548173ffffffffffffffffffffffffffffffffffffffff021916908373ffffffffffffffffffffffffffffffffffffffff160217905550838573ffffffffffffffffffffffffffffffffffffffff168273ffffffffffffffffffffffffffffffffffffffff167fddf252ad1be2c89b69c2b068fc378daa952ba7f163c4a11628f55a4df523b3ef60405160405180910390a4809150509392505050565b6119186116dc565b73ffffffffffffffffffffffffffffffffffffffff16611936610c66565b73ffffffffffffffffffffffffffffffffffffffff1614611995576119596116dc565b6040517f118cdaa700000000000000000000000000000000000000000000000000000000815260040161198c91906127cb565b60405180910390fd5b565b6000600760009054906101000a900473ffffffffffffffffffffffffffffffffffffffff16905081600760006101000a81548173ffffffffffffffffffffffffffffffffffffffff021916908373ffffffffffffffffffffffffffffffffffffffff1602179055508173ffffffffffffffffffffffffffffffffffffffff168173ffffffffffffffffffffffffffffffffffffffff167f8be0079c531659141344cd1fd0a4f28419497f9722a3daafe3b4186f6b6457e060405160405180910390a35050565b600073ffffffffffffffffffffffffffffffffffffffff168273ffffffffffffffffffffffffffffffffffffffff1603611ace57816040517f5b08ba18000000000000000000000000000000000000000000000000000000008152600401611ac591906127cb565b60405180910390fd5b80600560008573ffffffffffffffffffffffffffffffffffffffff1673ffffffffffffffffffffffffffffffffffffffff16815260200190815260200160002060008473ffffffffffffffffffffffffffffffffffffffff1673ffffffffffffffffffffffffffffffffffffffff16815260200190815260200160002060006101000a81548160ff0219169083151502179055508173ffffffffffffffffffffffffffffffffffffffff168373ffffffffffffffffffffffffffffffffffffffff167f17307eab39ab6107e8899845ad3d59bd9653f200f220920489ca2b5937696c3183604051611bbf919061265a565b60405180910390a3505050565b611be68282604051806020016040528060008152506121a7565b5050565b80600660008481526020019081526020016000209081611c0a9190613224565b507ff8e1a15aba9398e019f0b49df1a4fde98ee17ae345cb5f6b5e2c27f5033e8ce782604051611c3a9190612a1f565b60405180910390a15050565b60008373ffffffffffffffffffffffffffffffffffffffff163b1115611df0578273ffffffffffffffffffffffffffffffffffffffff1663150b7a02868685856040518563ffffffff1660e01b8152600401611ca594939291906134e6565b6020604051808303816000875af1925050508015611ce157506040513d601f19601f82011682018060405250810190611cde9190613547565b60015b611d65573d8060008114611d11576040519150601f19603f3d011682016040523d82523d6000602084013e611d16565b606091505b506000815103611d5d57836040517f64a0ae92000000000000000000000000000000000000000000000000000000008152600401611d5491906127cb565b60405180910390fd5b805181602001fd5b63150b7a0260e01b7bffffffffffffffffffffffffffffffffffffffffffffffffffffffff1916817bffffffffffffffffffffffffffffffffffffffffffffffffffffffff191614611dee57836040517f64a0ae92000000000000000000000000000000000000000000000000000000008152600401611de591906127cb565b60405180910390fd5b505b5050505050565b606060405180602001604052806000815250905090565b6060611e1982611617565b506000611e24611df7565b90506000815111611e445760405180602001604052806000815250611e6f565b80611e4e846121cb565b604051602001611e5f92919061346d565b6040516020818303038152906040525b915050919050565b60007f01ffc9a7000000000000000000000000000000000000000000000000000000007bffffffffffffffffffffffffffffffffffffffffffffffffffffffff1916827bffffffffffffffffffffffffffffffffffffffffffffffffffffffff1916149050919050565b60006002600083815260200190815260200160002060009054906101000a900473ffffffffffffffffffffffffffffffffffffffff169050919050565b8080611f575750600073ffffffffffffffffffffffffffffffffffffffff168273ffffffffffffffffffffffffffffffffffffffff1614155b1561208b576000611f6784611617565b9050600073ffffffffffffffffffffffffffffffffffffffff168373ffffffffffffffffffffffffffffffffffffffff1614158015611fd257508273ffffffffffffffffffffffffffffffffffffffff168173ffffffffffffffffffffffffffffffffffffffff1614155b8015611fe55750611fe3818461141b565b155b1561202757826040517fa9fbf51f00000000000000000000000000000000000000000000000000000000815260040161201e91906127cb565b60405180910390fd5b811561208957838573ffffffffffffffffffffffffffffffffffffffff168273ffffffffffffffffffffffffffffffffffffffff167f8c5be1e5ebec7d5bd14f71427d1e84f3dd0314c0f7b2291e5b200ac8c7c3b92560405160405180910390a45b505b836004600085815260200190815260200160002060006101000a81548173ffffffffffffffffffffffffffffffffffffffff021916908373ffffffffffffffffffffffffffffffffffffffff16021790555050505050565b6120ee838383612299565b6121a257600073ffffffffffffffffffffffffffffffffffffffff168373ffffffffffffffffffffffffffffffffffffffff160361216357806040517f7e27328900000000000000000000000000000000000000000000000000000000815260040161215a9190612a1f565b60405180910390fd5b81816040517f177e802f0000000000000000000000000000000000000000000000000000000081526004016121999291906133d8565b60405180910390fd5b505050565b6121b1838361235a565b6121c66121bc6116dc565b6000858585611c46565b505050565b6060600060016121da84612453565b01905060008167ffffffffffffffff8111156121f9576121f861281c565b5b6040519080825280601f01601f19166020018201604052801561222b5781602001600182028036833780820191505090505b509050600082602001820190505b60011561228e578080600190039150507f3031323334353637383961626364656600000000000000000000000000000000600a86061a8153600a858161228257612281613574565b5b04945060008503612239575b819350505050919050565b60008073ffffffffffffffffffffffffffffffffffffffff168373ffffffffffffffffffffffffffffffffffffffff161415801561235157508273ffffffffffffffffffffffffffffffffffffffff168473ffffffffffffffffffffffffffffffffffffffff1614806123125750612311848461141b565b5b8061235057508273ffffffffffffffffffffffffffffffffffffffff166123388361169f565b73ffffffffffffffffffffffffffffffffffffffff16145b5b90509392505050565b600073ffffffffffffffffffffffffffffffffffffffff168273ffffffffffffffffffffffffffffffffffffffff16036123cc5760006040517f64a0ae920000000000000000000000000000000000000000000000000000000081526004016123c391906127cb565b60405180910390fd5b60006123da838360006116f6565b9050600073ffffffffffffffffffffffffffffffffffffffff168173ffffffffffffffffffffffffffffffffffffffff161461244e5760006040517f73c6ac6e00000000000000000000000000000000000000000000000000000000815260040161244591906127cb565b60405180910390fd5b505050565b600080600090507a184f03e93ff9f4daa797ed6e38ed64bf6a1f01000000000000000083106124b1577a184f03e93ff9f4daa797ed6e38ed64bf6a1f01000000000000000083816124a7576124a6613574565b5b0492506040810190505b6d04ee2d6d415b85acef810000000083106124ee576d04ee2d6d415b85acef810000000083816124e4576124e3613574565b5b0492506020810190505b662386f26fc10000831061251d57662386f26fc10000838161251357612512613574565b5b0492506010810190505b6305f5e1008310612546576305f5e100838161253c5761253b613574565b5b0492506008810190505b612710831061256b57612710838161256157612560613574565b5b0492506004810190505b6064831061258e576064838161258457612583613574565b5b0492506002810190505b600a831061259d576001810190505b80915050919050565b6000604051905090565b600080fd5b600080fd5b60007fffffffff0000000000000000000000000000000000000000000000000000000082169050919050565b6125ef816125ba565b81146125fa57600080fd5b50565b60008135905061260c816125e6565b92915050565b600060208284031215612628576126276125b0565b5b6000612636848285016125fd565b91505092915050565b60008115159050919050565b6126548161263f565b82525050565b600060208201905061266f600083018461264b565b92915050565b600081519050919050565b600082825260208201905092915050565b60005b838110156126af578082015181840152602081019050612694565b60008484015250505050565b6000601f19601f8301169050919050565b60006126d782612675565b6126e18185612680565b93506126f1818560208601612691565b6126fa816126bb565b840191505092915050565b6000602082019050818103600083015261271f81846126cc565b905092915050565b6000819050919050565b61273a81612727565b811461274557600080fd5b50565b60008135905061275781612731565b92915050565b600060208284031215612773576127726125b0565b5b600061278184828501612748565b91505092915050565b600073ffffffffffffffffffffffffffffffffffffffff82169050919050565b60006127b58261278a565b9050919050565b6127c5816127aa565b82525050565b60006020820190506127e060008301846127bc565b92915050565b6127ef816127aa565b81146127fa57600080fd5b50565b60008135905061280c816127e6565b92915050565b600080fd5b600080fd5b7f4e487b7100000000000000000000000000000000000000000000000000000000600052604160045260246000fd5b612854826126bb565b810181811067ffffffffffffffff821117156128735761287261281c565b5b80604052505050565b60006128866125a6565b9050612892828261284b565b919050565b600067ffffffffffffffff8211156128b2576128b161281c565b5b6128bb826126bb565b9050602081019050919050565b82818337600083830152505050565b60006128ea6128e584612897565b61287c565b90508281526020810184848401111561290657612905612817565b5b6129118482856128c8565b509392505050565b600082601f83011261292e5761292d612812565b5b813561293e8482602086016128d7565b91505092915050565b6000806040838503121561295e5761295d6125b0565b5b600061296c858286016127fd565b925050602083013567ffffffffffffffff81111561298d5761298c6125b5565b5b61299985828601612919565b9150509250929050565b600080604083850312156129ba576129b96125b0565b5b60006129c8858286016127fd565b92505060206129d985828601612748565b9150509250929050565b6000602082840312156129f9576129f86125b0565b5b6000612a07848285016127fd565b91505092915050565b612a1981612727565b82525050565b6000602082019050612a346000830184612a10565b92915050565b600080600060608486031215612a5357612a526125b0565b5b6000612a61868287016127fd565b9350506020612a72868287016127fd565b9250506040612a8386828701612748565b9150509250925092565b600081519050919050565b600082825260208201905092915050565b6000819050602082019050919050565b612ac2816127aa565b82525050565b612ad181612727565b82525050565b600082825260208201905092915050565b6000612af382612675565b612afd8185612ad7565b9350612b0d818560208601612691565b612b16816126bb565b840191505092915050565b600060c083016000830151612b396000860182612ab9565b506020830151612b4c6020860182612ac8565b506040830151612b5f6040860182612ac8565b5060608301518482036060860152612b778282612ae8565b91505060808301518482036080860152612b918282612ae8565b91505060a0830151612ba660a0860182612ac8565b508091505092915050565b6000612bbd8383612b21565b905092915050565b6000602082019050919050565b6000612bdd82612a8d565b612be78185612a98565b935083602082028501612bf985612aa9565b8060005b85811015612c355784840389528151612c168582612bb1565b9450612c2183612bc5565b925060208a01995050600181019050612bfd565b50829750879550505050505092915050565b60006020820190508181036000830152612c618184612bd2565b905092915050565b612c728161263f565b8114612c7d57600080fd5b50565b600081359050612c8f81612c69565b92915050565b60008060408385031215612cac57612cab6125b0565b5b6000612cba858286016127fd565b9250506020612ccb85828601612c80565b9150509250929050565b60008060008060808587031215612cef57612cee6125b0565b5b6000612cfd87828801612748565b945050602085013567ffffffffffffffff811115612d1e57612d1d6125b5565b5b612d2a87828801612919565b935050604085013567ffffffffffffffff811115612d4b57612d4a6125b5565b5b612d5787828801612919565b9250506060612d68878288016127fd565b91505092959194509250565b600067ffffffffffffffff821115612d8f57612d8e61281c565b5b612d98826126bb565b9050602081019050919050565b6000612db8612db384612d74565b61287c565b905082815260208101848484011115612dd457612dd3612817565b5b612ddf8482856128c8565b509392505050565b600082601f830112612dfc57612dfb612812565b5b8135612e0c848260208601612da5565b91505092915050565b60008060008060808587031215612e2f57612e2e6125b0565b5b6000612e3d878288016127fd565b9450506020612e4e878288016127fd565b9350506040612e5f87828801612748565b925050606085013567ffffffffffffffff811115612e8057612e7f6125b5565b5b612e8c87828801612de7565b91505092959194509250565b600060c082019050612ead60008301896127bc565b612eba6020830188612a10565b612ec76040830187612a10565b8181036060830152612ed981866126cc565b90508181036080830152612eed81856126cc565b9050612efc60a0830184612a10565b979650505050505050565b600081519050919050565b600082825260208201905092915050565b6000819050602082019050919050565b6000612f3f8383612ab9565b60208301905092915050565b6000602082019050919050565b6000612f6382612f07565b612f6d8185612f12565b9350612f7883612f23565b8060005b83811015612fa9578151612f908882612f33565b9750612f9b83612f4b565b925050600181019050612f7c565b5085935050505092915050565b60006020820190508181036000830152612fd08184612f58565b905092915050565b60008060408385031215612fef57612fee6125b0565b5b6000612ffd858286016127fd565b925050602061300e858286016127fd565b9150509250929050565b7f4e487b7100000000000000000000000000000000000000000000000000000000600052602260045260246000fd5b6000600282049050600182168061305f57607f821691505b60208210810361307257613071613018565b5b50919050565b60008190508160005260206000209050919050565b60006020601f8301049050919050565b600082821b905092915050565b6000600883026130da7fffffffffffffffffffffffffffffffffffffffffffffffffffffffffffffffff8261309d565b6130e4868361309d565b95508019841693508086168417925050509392505050565b6000819050919050565b600061312161311c61311784612727565b6130fc565b612727565b9050919050565b6000819050919050565b61313b83613106565b61314f61314782613128565b8484546130aa565b825550505050565b600090565b613164613157565b61316f818484613132565b505050565b5b818110156131935761318860008261315c565b600181019050613175565b5050565b601f8211156131d8576131a981613078565b6131b28461308d565b810160208510156131c1578190505b6131d56131cd8561308d565b830182613174565b50505b505050565b600082821c905092915050565b60006131fb600019846008026131dd565b1980831691505092915050565b600061321483836131ea565b9150826002028217905092915050565b61322d82612675565b67ffffffffffffffff8111156132465761324561281c565b5b6132508254613047565b61325b828285613197565b600060209050601f83116001811461328e576000841561327c578287015190505b6132868582613208565b8655506132ee565b601f19841661329c86613078565b60005b828110156132c45784890151825560018201915060208501945060208101905061329f565b868310156132e157848901516132dd601f8916826131ea565b8355505b6001600288020188555050505b505050505050565b600060608201905061330b60008301866127bc565b6133186020830185612a10565b61332560408301846127bc565b949350505050565b7f4e487b7100000000000000000000000000000000000000000000000000000000600052601160045260246000fd5b600061336782612727565b915061337283612727565b925082820190508082111561338a5761338961332d565b5b92915050565b600061339b82612727565b91507fffffffffffffffffffffffffffffffffffffffffffffffffffffffffffffffff82036133cd576133cc61332d565b5b600182019050919050565b60006040820190506133ed60008301856127bc565b6133fa6020830184612a10565b9392505050565b600060408201905061341660008301856127bc565b818103602083015261342881846126cc565b90509392505050565b600081905092915050565b600061344782612675565b6134518185613431565b9350613461818560208601612691565b80840191505092915050565b6000613479828561343c565b9150613485828461343c565b91508190509392505050565b600081519050919050565b600082825260208201905092915050565b60006134b882613491565b6134c2818561349c565b93506134d2818560208601612691565b6134db816126bb565b840191505092915050565b60006080820190506134fb60008301876127bc565b61350860208301866127bc565b6135156040830185612a10565b818103606083015261352781846134ad565b905095945050505050565b600081519050613541816125e6565b92915050565b60006020828403121561355d5761355c6125b0565b5b600061356b84828501613532565b91505092915050565b7f4e487b7100000000000000000000000000000000000000000000000000000000600052601260045260246000fdfea26469706673582212205d81f26e954eeb67a63002e0be1b380d7395e83ce8e965fb28bc48815ed8753a64736f6c634300081c0033",
  "linkReferences": {},
  "deployedLinkReferences": {}
}