{
  "_format": "hh-sol-artifact-1",
  "contractName": "BaseArena",
  "sourceName": "contracts/BaseArena.sol",
  "abi": [
    {
      "inputs": [],
      "stateMutability": "nonpayable",
      "type": "constructor"
    },
    {
      "inputs": [
        {
          "internalType": "address",
          "name": "sender",
          "type": "address"
        },
        {
          "internalType": "uint256",
          "name": "tokenId",
          "type": "uint256"
        },
        {
          "internalType": "address",
          "name": "owner",
          "type": "address"
        }
      ],
      "name": "ERC721IncorrectOwner",
      "type": "error"
    },
    {
      "inputs": [
        {
          "internalType": "address",
          "name": "operator",
          "type": "address"
        },
        {
          "internalType": "uint256",
          "name": "tokenId",
          "type": "uint256"
        }
      ],
      "name": "ERC721InsufficientApproval",
      "type": "error"
    },
    {
      "inputs": [
        {
          "internalType": "address",
          "name": "approver",
          "type": "address"
        }
      ],
      "name": "ERC721InvalidApprover",
      "type": "error"
    },
    {
      "inputs": [
        {
          "internalType": "address",
          "name": "operator",
          "type": "address"
        }
      ],
      "name": "ERC721InvalidOperator",
      "type": "error"
    },
    {
      "inputs": [
        {
          "internalType": "address",
          "name": "owner",
          "type": "address"
        }
      ],
      "name": "ERC721InvalidOwner",
      "type": "error"
    },
    {
      "inputs": [
        {
          "internalType": "address",
          "name": "receiver",
          "type": "address"
        }
      ],
      "name": "ERC721InvalidReceiver",
      "type": "error"
    },
    {
      "inputs": [
        {
          "internalType": "address",
          "name": "sender",
          "type": "address"
        }
      ],
      "name": "ERC721InvalidSender",
      "type": "error"
    },
    {
      "inputs": [
        {
          "internalType": "uint256",
          "name": "tokenId",
          "type": "uint256"
        }
      ],
      "name": "ERC721NonexistentToken",
      "type": "error"
    },
    {
      "inputs": [
        {
          "internalType": "address",
          "name": "owner",
          "type": "address"
        }
      ],
      "name": "OwnableInvalidOwner",
      "type": "error"
    },
    {
      "inputs": [
        {
          "internalType": "address",
          "name": "account",
          "type": "address"
        }
      ],
      "name": "OwnableUnauthorizedAccount",
      "type": "error"
    },
    {
      "anonymous": false,
      "inputs": [
        {
          "indexed": true,
          "internalType": "address",
          "name": "owner",
          "type": "address"
        },
        {
          "indexed": true,
          "internalType": "address",
          "name": "approved",
          "type": "address"
        },
        {
          "indexed": true,
          "internalType": "uint256",
          "name": "tokenId",
          "type": "uint256"
        }
      ],
      "name": "Approval",
      "type": "event"
    },
    {
      "anonymous": false,
      "inputs": [
        {
          "indexed": true,
          "internalType": "address",
          "name": "owner",
          "type": "address"
        },
        {
          "indexed": true,
          "internalType": "address",
          "name": "operator",
          "type": "address"
        },
        {
          "indexed": false,
          "internalType": "bool",
          "name": "approved",
          "type": "bool"
        }
      ],
      "name": "ApprovalForAll",
      "type": "event"
    },
    {
      "anonymous": false,
      "inputs": [
        {
          "indexed": false,
          "internalType": "uint256",
          "name": "_fromTokenId",
          "type": "uint256"
        },
        {
          "indexed": false,
          "internalType": "uint256",
          "name": "_toTokenId",
          "type": "uint256"
        }
      ],
      "name": "BatchMetadataUpdate",
      "type": "event"
    },
    {
      "anonymous": false,
      "inputs": [
        {
          "indexed": false,
          "internalType": "uint256",
          "name": "_tokenId",
          "type": "uint256"
        }
      ],
      "name": "MetadataUpdate",
      "type": "event"
    },
    {
      "anonymous": false,
      "inputs": [
        {
          "indexed": true,
          "internalType": "address",
          "name": "previousOwner",
          "type": "address"
        },
        {
          "indexed": true,
          "internalType": "address",
          "name": "newOwner",
          "type": "address"
        }
      ],
      "name": "OwnershipTransferred",
      "type": "event"
    },
    {
      "anonymous": false,
      "inputs": [
        {
          "indexed": true,
          "internalType": "address",
          "name": "from",
          "type": "address"
        },
        {
          "indexed": true,
          "internalType": "address",
          "name": "to",
          "type": "address"
        },
        {
          "indexed": true,
          "internalType": "uint256",
          "name": "tokenId",
          "type": "uint256"
        }
      ],
      "name": "Transfer",
      "type": "event"
    },
    {
      "inputs": [
        {
          "internalType": "address",
          "name": "",
          "type": "address"
        }
      ],
      "name": "AIResponse",
      "outputs": [
        {
          "internalType": "string",
          "name": "",
          "type": "string"
        }
      ],
      "stateMutability": "view",
      "type": "function"
    },
    {
      "inputs": [
        {
          "internalType": "uint256",
          "name": "",
          "type": "uint256"
        }
      ],
      "name": "all_users",
      "outputs": [
        {
          "internalType": "address",
          "name": "",
          "type": "address"
        }
      ],
      "stateMutability": "view",
      "type": "function"
    },
    {
      "inputs": [
        {
          "internalType": "address",
          "name": "to",
          "type": "address"
        },
        {
          "internalType": "uint256",
          "name": "tokenId",
          "type": "uint256"
        }
      ],
      "name": "approve",
      "outputs": [],
      "stateMutability": "nonpayable",
      "type": "function"
    },
    {
      "inputs": [
        {
          "internalType": "address",
          "name": "owner",
          "type": "address"
        }
      ],
      "name": "balanceOf",
      "outputs": [
        {
          "internalType": "uint256",
          "name": "",
          "type": "uint256"
        }
      ],
      "stateMutability": "view",
      "type": "function"
    },
    {
      "inputs": [
        {
          "internalType": "address",
          "name": "",
          "type": "address"
        },
        {
          "internalType": "uint256",
          "name": "",
          "type": "uint256"
        }
      ],
      "name": "games_of_user",
      "outputs": [
        {
          "internalType": "address",
          "name": "owner",
          "type": "address"
        },
        {
          "internalType": "uint256",
          "name": "reputation_score",
          "type": "uint256"
        },
        {
          "internalType": "uint256",
          "name": "ai_rewards",
          "type": "uint256"
        },
        {
          "internalType": "string",
          "name": "image_asset",
          "type": "string"
        },
        {
          "internalType": "string",
          "name": "doppleganger_asset",
          "type": "string"
        },
        {
          "internalType": "uint256",
          "name": "tokenId",
          "type": "uint256"
        }
      ],
      "stateMutability": "view",
      "type": "function"
    },
    {
      "inputs": [],
      "name": "getAllUsers",
      "outputs": [
        {
          "internalType": "address[]",
          "name": "",
          "type": "address[]"
        }
      ],
      "stateMutability": "view",
      "type": "function"
    },
    {
      "inputs": [
        {
          "internalType": "uint256",
          "name": "tokenId",
          "type": "uint256"
        }
      ],
      "name": "getApproved",
      "outputs": [
        {
          "internalType": "address",
          "name": "",
          "type": "address"
        }
      ],
      "stateMutability": "view",
      "type": "function"
    },
    {
      "inputs": [
        {
          "internalType": "address",
          "name": "user",
          "type": "address"
        }
      ],
      "name": "getNFTs",
      "outputs": [
        {
          "components": [
            {
              "internalType": "address",
              "name": "owner",
              "type": "address"
            },
            {
              "internalType": "uint256",
              "name": "reputation_score",
              "type": "uint256"
            },
            {
              "internalType": "uint256",
              "name": "ai_rewards",
              "type": "uint256"
            },
            {
              "internalType": "string",
              "name": "image_asset",
              "type": "string"
            },
            {
              "internalType": "string",
              "name": "doppleganger_asset",
              "type": "string"
            },
            {
              "internalType": "uint256",
              "name": "tokenId",
              "type": "uint256"
            }
          ],
          "internalType": "struct BaseArena.BARNNFT[]",
          "name": "",
          "type": "tuple[]"
        }
      ],
      "stateMutability": "view",
      "type": "function"
    },
    {
      "inputs": [
        {
          "internalType": "address",
          "name": "owner",
          "type": "address"
        },
        {
          "internalType": "address",
          "name": "operator",
          "type": "address"
        }
      ],
      "name": "isApprovedForAll",
      "outputs": [
        {
          "internalType": "bool",
          "name": "",
          "type": "bool"
        }
      ],
      "stateMutability": "view",
      "type": "function"
    },
    {
      "inputs": [],
      "name": "name",
      "outputs": [
        {
          "internalType": "string",
          "name": "",
          "type": "string"
        }
      ],
      "stateMutability": "view",
      "type": "function"
    },
    {
      "inputs": [],
      "name": "owner",
      "outputs": [
        {
          "internalType": "address",
          "name": "",
          "type": "address"
        }
      ],
      "stateMutability": "view",
      "type": "function"
    },
    {
      "inputs": [
        {
          "internalType": "uint256",
          "name": "tokenId",
          "type": "uint256"
        }
      ],
      "name": "ownerOf",
      "outputs": [
        {
          "internalType": "address",
          "name": "",
          "type": "address"
        }
      ],
      "stateMutability": "view",
      "type": "function"
    },
    {
      "inputs": [
        {
          "internalType": "address",
          "name": "",
          "type": "address"
        }
      ],
      "name": "percentile",
      "outputs": [
        {
          "internalType": "uint256",
          "name": "",
          "type": "uint256"
        }
      ],
      "stateMutability": "view",
      "type": "function"
    },
    {
      "inputs": [],
      "name": "renounceOwnership",
      "outputs": [],
      "stateMutability": "nonpayable",
      "type": "function"
    },
    {
      "inputs": [
        {
          "internalType": "address",
          "name": "",
          "type": "address"
        }
      ],
      "name": "reputation_score",
      "outputs": [
        {
          "internalType": "uint256",
          "name": "",
          "type": "uint256"
        }
      ],
      "stateMutability": "view",
      "type": "function"
    },
    {
      "inputs": [
        {
          "internalType": "address",
          "name": "",
          "type": "address"
        }
      ],
      "name": "rewards_earned",
      "outputs": [
        {
          "internalType": "uint256",
          "name": "",
          "type": "uint256"
        }
      ],
      "stateMutability": "view",
      "type": "function"
    },
    {
      "inputs": [
        {
          "internalType": "uint256",
          "name": "rewards_earnedUser",
          "type": "uint256"
        },
        {
          "internalType": "string",
          "name": "uri",
          "type": "string"
        },
        {
          "internalType": "string",
          "name": "dopplegangeruri",
          "type": "string"
        },
        {
          "internalType": "address",
          "name": "to",
          "type": "address"
        }
      ],
      "name": "safeMint",
      "outputs": [],
      "stateMutability": "nonpayable",
      "type": "function"
    },
    {
      "inputs": [
        {
          "internalType": "address",
          "name": "from",
          "type": "address"
        },
        {
          "internalType": "address",
          "name": "to",
          "type": "address"
        },
        {
          "internalType": "uint256",
          "name": "tokenId",
          "type": "uint256"
        }
      ],
      "name": "safeTransferFrom",
      "outputs": [],
      "stateMutability": "nonpayable",
      "type": "function"
    },
    {
      "inputs": [
        {
          "internalType": "address",
          "name": "from",
          "type": "address"
        },
        {
          "internalType": "address",
          "name": "to",
          "type": "address"
        },
        {
          "internalType": "uint256",
          "name": "tokenId",
          "type": "uint256"
        },
        {
          "internalType": "bytes",
          "name": "data",
          "type": "bytes"
        }
      ],
      "name": "safeTransferFrom",
      "outputs": [],
      "stateMutability": "nonpayable",
      "type": "function"
    },
    {
      "inputs": [
        {
          "internalType": "address",
          "name": "user",
          "type": "address"
        },
        {
          "internalType": "string",
          "name": "data",
          "type": "string"
        }
      ],
      "name": "saveResponse",
      "outputs": [],
      "stateMutability": "nonpayable",
      "type": "function"
    },
    {
      "inputs": [
        {
          "internalType": "address",
          "name": "operator",
          "type": "address"
        },
        {
          "internalType": "bool",
          "name": "approved",
          "type": "bool"
        }
      ],
      "name": "setApprovalForAll",
      "outputs": [],
      "stateMutability": "nonpayable",
      "type": "function"
    },
    {
      "inputs": [
        {
          "internalType": "bytes4",
          "name": "interfaceId",
          "type": "bytes4"
        }
      ],
      "name": "supportsInterface",
      "outputs": [
        {
          "internalType": "bool",
          "name": "",
          "type": "bool"
        }
      ],
      "stateMutability": "view",
      "type": "function"
    },
    {
      "inputs": [],
      "name": "symbol",
      "outputs": [
        {
          "internalType": "string",
          "name": "",
          "type": "string"
        }
      ],
      "stateMutability": "view",
      "type": "function"
    },
    {
      "inputs": [],
      "name": "tokenId",
      "outputs": [
        {
          "internalType": "uint256",
          "name": "",
          "type": "uint256"
        }
      ],
      "stateMutability": "view",
      "type": "function"
    },
    {
      "inputs": [
        {
          "internalType": "uint256",
          "name": "tokenId",
          "type": "uint256"
        }
      ],
      "name": "tokenURI",
      "outputs": [
        {
          "internalType": "string",
          "name": "",
          "type": "string"
        }
      ],
      "stateMutability": "view",
      "type": "function"
    },
    {
      "inputs": [
        {
          "internalType": "address",
          "name": "from",
          "type": "address"
        },
        {
          "internalType": "address",
          "name": "to",
          "type": "address"
        },
        {
          "internalType": "uint256",
          "name": "tokenId",
          "type": "uint256"
        }
      ],
      "name": "transferFrom",
      "outputs": [],
      "stateMutability": "nonpayable",
      "type": "function"
    },
    {
      "inputs": [
        {
          "internalType": "address",
          "name": "newOwner",
          "type": "address"
        }
      ],
      "name": "transferOwnership",
      "outputs": [],
      "stateMutability": "nonpayable",
      "type": "function"
    }
  ],
  "bytecode": "0x608060405234801561001057600080fd5b50336040518060400160405280600981526020017f426173654172656e6100000000000000000000000000000000000000000000008152506040518060400160405280600481526020017f4241524e00000000000000000000000000000000000000000000000000000000815250816000908161008d919061043d565b50806001908161009d919061043d565b505050600073ffffffffffffffffffffffffffffffffffffffff168173ffffffffffffffffffffffffffffffffffffffff16036101125760006040517f1e4fbdf70000000000000000000000000000000000000000000000000000000081526004016101099190610550565b60405180910390fd5b6101218161012760201b60201c565b5061056b565b6000600760009054906101000a900473ffffffffffffffffffffffffffffffffffffffff16905081600760006101000a81548173ffffffffffffffffffffffffffffffffffffffff021916908373ffffffffffffffffffffffffffffffffffffffff1602179055508173ffffffffffffffffffffffffffffffffffffffff168173ffffffffffffffffffffffffffffffffffffffff167f8be0079c531659141344cd1fd0a4f28419497f9722a3daafe3b4186f6b6457e060405160405180910390a35050565b600081519050919050565b7f4e487b7100000000000000000000000000000000000000000000000000000000600052604160045260246000fd5b7f4e487b7100000000000000000000000000000000000000000000000000000000600052602260045260246000fd5b6000600282049050600182168061026e57607f821691505b60208210810361028157610280610227565b5b50919050565b60008190508160005260206000209050919050565b60006020601f8301049050919050565b600082821b905092915050565b6000600883026102e97fffffffffffffffffffffffffffffffffffffffffffffffffffffffffffffffff826102ac565b6102f386836102ac565b95508019841693508086168417925050509392505050565b6000819050919050565b6000819050919050565b600061033a6103356103308461030b565b610315565b61030b565b9050919050565b6000819050919050565b6103548361031f565b61036861036082610341565b8484546102b9565b825550505050565b600090565b61037d610370565b61038881848461034b565b505050565b5b818110156103ac576103a1600082610375565b60018101905061038e565b5050565b601f8211156103f1576103c281610287565b6103cb8461029c565b810160208510156103da578190505b6103ee6103e68561029c565b83018261038d565b50505b505050565b600082821c905092915050565b6000610414600019846008026103f6565b1980831691505092915050565b600061042d8383610403565b9150826002028217905092915050565b610446826101ed565b67ffffffffffffffff81111561045f5761045e6101f8565b5b6104698254610256565b6104748282856103b0565b600060209050601f8311600181146104a75760008415610495578287015190505b61049f8582610421565b865550610507565b601f1984166104b586610287565b60005b828110156104dd578489015182556001820191506020850194506020810190506104b8565b868310156104fa57848901516104f6601f891682610403565b8355505b6001600288020188555050505b505050505050565b600073ffffffffffffffffffffffffffffffffffffffff82169050919050565b600061053a8261050f565b9050919050565b61054a8161052f565b82525050565b60006020820190506105656000830184610541565b92915050565b6135378061057a6000396000f3fe608060405234801561001057600080fd5b50600436106101a95760003560e01c806370a08231116100f9578063b88d4fde11610097578063e2842d7911610071578063e2842d7914610509578063e96551ca14610527578063e985e9c514610557578063f2fde38b14610587576101a9565b8063b88d4fde14610488578063c87b56dd146104a4578063cc01706a146104d4576101a9565b80638da5cb5b116100d35780638da5cb5b1461041457806395d89b4114610432578063a22cb46514610450578063a46b34d31461046c576101a9565b806370a08231146103aa578063715018a6146103da57806382183fb0146103e4576101a9565b806317d70f7c11610166578063535a1af511610140578063535a1af5146102ea5780636352211e1461031a57806367dac2a01461034a5780636b3e3b311461037a576101a9565b806317d70f7c1461029457806323b872dd146102b257806342842e0e146102ce576101a9565b806301ffc9a7146101ae57806306fdde03146101de578063081812fc146101fc578063083755301461022c578063095ea7b314610248578063120f9ec214610264575b600080fd5b6101c860048036038101906101c391906125a0565b6105a3565b6040516101d591906125e8565b60405180910390f35b6101e6610604565b6040516101f39190612693565b60405180910390f35b610216600480360381019061021191906126eb565b610696565b6040516102239190612759565b60405180910390f35b610246600480360381019061024191906128d5565b6106b2565b005b610262600480360381019061025d9190612931565b610703565b005b61027e60048036038101906102799190612971565b610719565b60405161028b91906129ad565b60405180910390f35b61029c610731565b6040516102a991906129ad565b60405180910390f35b6102cc60048036038101906102c791906129c8565b610737565b005b6102e860048036038101906102e391906129c8565b610839565b005b61030460048036038101906102ff9190612971565b610859565b60405161031191906129ad565b60405180910390f35b610334600480360381019061032f91906126eb565b610871565b6040516103419190612759565b60405180910390f35b610364600480360381019061035f91906126eb565b610883565b6040516103719190612759565b60405180910390f35b610394600480360381019061038f9190612971565b6108c2565b6040516103a19190612693565b60405180910390f35b6103c460048036038101906103bf9190612971565b610962565b6040516103d191906129ad565b60405180910390f35b6103e2610a1c565b005b6103fe60048036038101906103f99190612971565b610a30565b60405161040b9190612bd5565b60405180910390f35b61041c610c66565b6040516104299190612759565b60405180910390f35b61043a610c90565b6040516104479190612693565b60405180910390f35b61046a60048036038101906104659190612c23565b610d22565b005b61048660048036038101906104819190612c63565b610d38565b005b6104a2600480360381019061049d9190612da3565b611042565b005b6104be60048036038101906104b991906126eb565b611067565b6040516104cb9190612693565b60405180910390f35b6104ee60048036038101906104e99190612931565b61117a565b60405161050096959493929190612e26565b60405180910390f35b610511611303565b60405161051e9190612f44565b60405180910390f35b610541600480360381019061053c9190612971565b611391565b60405161054e91906129ad565b60405180910390f35b610571600480360381019061056c9190612f66565b6113a9565b60405161057e91906125e8565b60405180910390f35b6105a1600480360381019061059c9190612971565b61143d565b005b6000634906490660e01b7bffffffffffffffffffffffffffffffffffffffffffffffffffffffff1916827bffffffffffffffffffffffffffffffffffffffffffffffffffffffff191614806105fd57506105fc826114c3565b5b9050919050565b60606000805461061390612fd5565b80601f016020809104026020016040519081016040528092919081815260200182805461063f90612fd5565b801561068c5780601f106106615761010080835404028352916020019161068c565b820191906000526020600020905b81548152906001019060200180831161066f57829003601f168201915b5050505050905090565b60006106a1826115a5565b506106ab8261162d565b9050919050565b80600c60008473ffffffffffffffffffffffffffffffffffffffff1673ffffffffffffffffffffffffffffffffffffffff16815260200190815260200160002090816106fe91906131b2565b505050565b610715828261071061166a565b611672565b5050565b60096020528060005260406000206000915090505481565b600d5481565b600073ffffffffffffffffffffffffffffffffffffffff168273ffffffffffffffffffffffffffffffffffffffff16036107a95760006040517f64a0ae920000000000000000000000000000000000000000000000000000000081526004016107a09190612759565b60405180910390fd5b60006107bd83836107b861166a565b611684565b90508373ffffffffffffffffffffffffffffffffffffffff168173ffffffffffffffffffffffffffffffffffffffff1614610833578382826040517f64283d7b00000000000000000000000000000000000000000000000000000000815260040161082a93929190613284565b60405180910390fd5b50505050565b61085483838360405180602001604052806000815250611042565b505050565b600a6020528060005260406000206000915090505481565b600061087c826115a5565b9050919050565b600e818154811061089357600080fd5b906000526020600020016000915054906101000a900473ffffffffffffffffffffffffffffffffffffffff1681565b600c60205280600052604060002060009150905080546108e190612fd5565b80601f016020809104026020016040519081016040528092919081815260200182805461090d90612fd5565b801561095a5780601f1061092f5761010080835404028352916020019161095a565b820191906000526020600020905b81548152906001019060200180831161093d57829003601f168201915b505050505081565b60008073ffffffffffffffffffffffffffffffffffffffff168273ffffffffffffffffffffffffffffffffffffffff16036109d55760006040517f89c62b640000000000000000000000000000000000000000000000000000000081526004016109cc9190612759565b60405180910390fd5b600360008373ffffffffffffffffffffffffffffffffffffffff1673ffffffffffffffffffffffffffffffffffffffff168152602001908152602001600020549050919050565b610a2461189e565b610a2e6000611925565b565b6060600b60008373ffffffffffffffffffffffffffffffffffffffff1673ffffffffffffffffffffffffffffffffffffffff168152602001908152602001600020805480602002602001604051908101604052809291908181526020016000905b82821015610c5b57838290600052602060002090600602016040518060c00160405290816000820160009054906101000a900473ffffffffffffffffffffffffffffffffffffffff1673ffffffffffffffffffffffffffffffffffffffff1673ffffffffffffffffffffffffffffffffffffffff1681526020016001820154815260200160028201548152602001600382018054610b2e90612fd5565b80601f0160208091040260200160405190810160405280929190818152602001828054610b5a90612fd5565b8015610ba75780601f10610b7c57610100808354040283529160200191610ba7565b820191906000526020600020905b815481529060010190602001808311610b8a57829003601f168201915b50505050508152602001600482018054610bc090612fd5565b80601f0160208091040260200160405190810160405280929190818152602001828054610bec90612fd5565b8015610c395780601f10610c0e57610100808354040283529160200191610c39565b820191906000526020600020905b815481529060010190602001808311610c1c57829003601f168201915b5050505050815260200160058201548152505081526020019060010190610a91565b505050509050919050565b6000600760009054906101000a900473ffffffffffffffffffffffffffffffffffffffff16905090565b606060018054610c9f90612fd5565b80601f0160208091040260200160405190810160405280929190818152602001828054610ccb90612fd5565b8015610d185780601f10610ced57610100808354040283529160200191610d18565b820191906000526020600020905b815481529060010190602001808311610cfb57829003601f168201915b5050505050905090565b610d34610d2d61166a565b83836119eb565b5050565b6001600860008373ffffffffffffffffffffffffffffffffffffffff1673ffffffffffffffffffffffffffffffffffffffff1681526020019081526020016000206000828254610d8891906132ea565b9250508190555083600960008373ffffffffffffffffffffffffffffffffffffffff1673ffffffffffffffffffffffffffffffffffffffff1681526020019081526020016000206000828254610dde91906132ea565b92505081905550600d6000815480929190610df89061331e565b9190505550610e0981600d54611b5a565b610e15600d5484611b78565b600e819080600181540180825580915050600190039060005260206000200160009091909190916101000a81548173ffffffffffffffffffffffffffffffffffffffff021916908373ffffffffffffffffffffffffffffffffffffffff16021790555060006040518060c001604052808373ffffffffffffffffffffffffffffffffffffffff168152602001600860008573ffffffffffffffffffffffffffffffffffffffff1673ffffffffffffffffffffffffffffffffffffffff168152602001908152602001600020548152602001600960008573ffffffffffffffffffffffffffffffffffffffff1673ffffffffffffffffffffffffffffffffffffffff168152602001908152602001600020548152602001858152602001848152602001600d548152509050600b60008373ffffffffffffffffffffffffffffffffffffffff1673ffffffffffffffffffffffffffffffffffffffff16815260200190815260200160002081908060018154018082558091505060019003906000526020600020906006020160009091909190915060008201518160000160006101000a81548173ffffffffffffffffffffffffffffffffffffffff021916908373ffffffffffffffffffffffffffffffffffffffff1602179055506020820151816001015560408201518160020155606082015181600301908161101891906131b2565b50608082015181600401908161102e91906131b2565b5060a0820151816005015550505050505050565b61104d848484610737565b61106161105861166a565b85858585611bd4565b50505050565b6060611072826115a5565b50600060066000848152602001908152602001600020805461109390612fd5565b80601f01602080910402602001604051908101604052809291908181526020018280546110bf90612fd5565b801561110c5780601f106110e15761010080835404028352916020019161110c565b820191906000526020600020905b8154815290600101906020018083116110ef57829003601f168201915b50505050509050600061111d611d85565b90506000815103611132578192505050611175565b60008251111561116757808260405160200161114f9291906133a2565b60405160208183030381529060405292505050611175565b61117084611d9c565b925050505b919050565b600b602052816000526040600020818154811061119657600080fd5b9060005260206000209060060201600091509150508060000160009054906101000a900473ffffffffffffffffffffffffffffffffffffffff16908060010154908060020154908060030180546111ec90612fd5565b80601f016020809104026020016040519081016040528092919081815260200182805461121890612fd5565b80156112655780601f1061123a57610100808354040283529160200191611265565b820191906000526020600020905b81548152906001019060200180831161124857829003601f168201915b50505050509080600401805461127a90612fd5565b80601f01602080910402602001604051908101604052809291908181526020018280546112a690612fd5565b80156112f35780601f106112c8576101008083540402835291602001916112f3565b820191906000526020600020905b8154815290600101906020018083116112d657829003601f168201915b5050505050908060050154905086565b6060600e80548060200260200160405190810160405280929190818152602001828054801561138757602002820191906000526020600020905b8160009054906101000a900473ffffffffffffffffffffffffffffffffffffffff1673ffffffffffffffffffffffffffffffffffffffff168152602001906001019080831161133d575b5050505050905090565b60086020528060005260406000206000915090505481565b6000600560008473ffffffffffffffffffffffffffffffffffffffff1673ffffffffffffffffffffffffffffffffffffffff16815260200190815260200160002060008373ffffffffffffffffffffffffffffffffffffffff1673ffffffffffffffffffffffffffffffffffffffff16815260200190815260200160002060009054906101000a900460ff16905092915050565b61144561189e565b600073ffffffffffffffffffffffffffffffffffffffff168173ffffffffffffffffffffffffffffffffffffffff16036114b75760006040517f1e4fbdf70000000000000000000000000000000000000000000000000000000081526004016114ae9190612759565b60405180910390fd5b6114c081611925565b50565b60007f80ac58cd000000000000000000000000000000000000000000000000000000007bffffffffffffffffffffffffffffffffffffffffffffffffffffffff1916827bffffffffffffffffffffffffffffffffffffffffffffffffffffffff1916148061158e57507f5b5e139f000000000000000000000000000000000000000000000000000000007bffffffffffffffffffffffffffffffffffffffffffffffffffffffff1916827bffffffffffffffffffffffffffffffffffffffffffffffffffffffff1916145b8061159e575061159d82611e05565b5b9050919050565b6000806115b183611e6f565b9050600073ffffffffffffffffffffffffffffffffffffffff168173ffffffffffffffffffffffffffffffffffffffff160361162457826040517f7e27328900000000000000000000000000000000000000000000000000000000815260040161161b91906129ad565b60405180910390fd5b80915050919050565b60006004600083815260200190815260200160002060009054906101000a900473ffffffffffffffffffffffffffffffffffffffff169050919050565b600033905090565b61167f8383836001611eac565b505050565b60008061169084611e6f565b9050600073ffffffffffffffffffffffffffffffffffffffff168373ffffffffffffffffffffffffffffffffffffffff16146116d2576116d1818486612071565b5b600073ffffffffffffffffffffffffffffffffffffffff168173ffffffffffffffffffffffffffffffffffffffff161461176357611714600085600080611eac565b6001600360008373ffffffffffffffffffffffffffffffffffffffff1673ffffffffffffffffffffffffffffffffffffffff168152602001908152602001600020600082825403925050819055505b600073ffffffffffffffffffffffffffffffffffffffff168573ffffffffffffffffffffffffffffffffffffffff16146117e6576001600360008773ffffffffffffffffffffffffffffffffffffffff1673ffffffffffffffffffffffffffffffffffffffff168152602001908152602001600020600082825401925050819055505b846002600086815260200190815260200160002060006101000a81548173ffffffffffffffffffffffffffffffffffffffff021916908373ffffffffffffffffffffffffffffffffffffffff160217905550838573ffffffffffffffffffffffffffffffffffffffff168273ffffffffffffffffffffffffffffffffffffffff167fddf252ad1be2c89b69c2b068fc378daa952ba7f163c4a11628f55a4df523b3ef60405160405180910390a4809150509392505050565b6118a661166a565b73ffffffffffffffffffffffffffffffffffffffff166118c4610c66565b73ffffffffffffffffffffffffffffffffffffffff1614611923576118e761166a565b6040517f118cdaa700000000000000000000000000000000000000000000000000000000815260040161191a9190612759565b60405180910390fd5b565b6000600760009054906101000a900473ffffffffffffffffffffffffffffffffffffffff16905081600760006101000a81548173ffffffffffffffffffffffffffffffffffffffff021916908373ffffffffffffffffffffffffffffffffffffffff1602179055508173ffffffffffffffffffffffffffffffffffffffff168173ffffffffffffffffffffffffffffffffffffffff167f8be0079c531659141344cd1fd0a4f28419497f9722a3daafe3b4186f6b6457e060405160405180910390a35050565b600073ffffffffffffffffffffffffffffffffffffffff168273ffffffffffffffffffffffffffffffffffffffff1603611a5c57816040517f5b08ba18000000000000000000000000000000000000000000000000000000008152600401611a539190612759565b60405180910390fd5b80600560008573ffffffffffffffffffffffffffffffffffffffff1673ffffffffffffffffffffffffffffffffffffffff16815260200190815260200160002060008473ffffffffffffffffffffffffffffffffffffffff1673ffffffffffffffffffffffffffffffffffffffff16815260200190815260200160002060006101000a81548160ff0219169083151502179055508173ffffffffffffffffffffffffffffffffffffffff168373ffffffffffffffffffffffffffffffffffffffff167f17307eab39ab6107e8899845ad3d59bd9653f200f220920489ca2b5937696c3183604051611b4d91906125e8565b60405180910390a3505050565b611b74828260405180602001604052806000815250612135565b5050565b80600660008481526020019081526020016000209081611b9891906131b2565b507ff8e1a15aba9398e019f0b49df1a4fde98ee17ae345cb5f6b5e2c27f5033e8ce782604051611bc891906129ad565b60405180910390a15050565b60008373ffffffffffffffffffffffffffffffffffffffff163b1115611d7e578273ffffffffffffffffffffffffffffffffffffffff1663150b7a02868685856040518563ffffffff1660e01b8152600401611c33949392919061341b565b6020604051808303816000875af1925050508015611c6f57506040513d601f19601f82011682018060405250810190611c6c919061347c565b60015b611cf3573d8060008114611c9f576040519150601f19603f3d011682016040523d82523d6000602084013e611ca4565b606091505b506000815103611ceb57836040517f64a0ae92000000000000000000000000000000000000000000000000000000008152600401611ce29190612759565b60405180910390fd5b805181602001fd5b63150b7a0260e01b7bffffffffffffffffffffffffffffffffffffffffffffffffffffffff1916817bffffffffffffffffffffffffffffffffffffffffffffffffffffffff191614611d7c57836040517f64a0ae92000000000000000000000000000000000000000000000000000000008152600401611d739190612759565b60405180910390fd5b505b5050505050565b606060405180602001604052806000815250905090565b6060611da7826115a5565b506000611db2611d85565b90506000815111611dd25760405180602001604052806000815250611dfd565b80611ddc84612159565b604051602001611ded9291906133a2565b6040516020818303038152906040525b915050919050565b60007f01ffc9a7000000000000000000000000000000000000000000000000000000007bffffffffffffffffffffffffffffffffffffffffffffffffffffffff1916827bffffffffffffffffffffffffffffffffffffffffffffffffffffffff1916149050919050565b60006002600083815260200190815260200160002060009054906101000a900473ffffffffffffffffffffffffffffffffffffffff169050919050565b8080611ee55750600073ffffffffffffffffffffffffffffffffffffffff168273ffffffffffffffffffffffffffffffffffffffff1614155b15612019576000611ef5846115a5565b9050600073ffffffffffffffffffffffffffffffffffffffff168373ffffffffffffffffffffffffffffffffffffffff1614158015611f6057508273ffffffffffffffffffffffffffffffffffffffff168173ffffffffffffffffffffffffffffffffffffffff1614155b8015611f735750611f7181846113a9565b155b15611fb557826040517fa9fbf51f000000000000000000000000000000000000000000000000000000008152600401611fac9190612759565b60405180910390fd5b811561201757838573ffffffffffffffffffffffffffffffffffffffff168273ffffffffffffffffffffffffffffffffffffffff167f8c5be1e5ebec7d5bd14f71427d1e84f3dd0314c0f7b2291e5b200ac8c7c3b92560405160405180910390a45b505b836004600085815260200190815260200160002060006101000a81548173ffffffffffffffffffffffffffffffffffffffff021916908373ffffffffffffffffffffffffffffffffffffffff16021790555050505050565b61207c838383612227565b61213057600073ffffffffffffffffffffffffffffffffffffffff168373ffffffffffffffffffffffffffffffffffffffff16036120f157806040517f7e2732890000000000000000000000000000000000000000000000000000000081526004016120e891906129ad565b60405180910390fd5b81816040517f177e802f0000000000000000000000000000000000000000000000000000000081526004016121279291906134a9565b60405180910390fd5b505050565b61213f83836122e8565b61215461214a61166a565b6000858585611bd4565b505050565b606060006001612168846123e1565b01905060008167ffffffffffffffff811115612187576121866127aa565b5b6040519080825280601f01601f1916602001820160405280156121b95781602001600182028036833780820191505090505b509050600082602001820190505b60011561221c578080600190039150507f3031323334353637383961626364656600000000000000000000000000000000600a86061a8153600a85816122105761220f6134d2565b5b049450600085036121c7575b819350505050919050565b60008073ffffffffffffffffffffffffffffffffffffffff168373ffffffffffffffffffffffffffffffffffffffff16141580156122df57508273ffffffffffffffffffffffffffffffffffffffff168473ffffffffffffffffffffffffffffffffffffffff1614806122a0575061229f84846113a9565b5b806122de57508273ffffffffffffffffffffffffffffffffffffffff166122c68361162d565b73ffffffffffffffffffffffffffffffffffffffff16145b5b90509392505050565b600073ffffffffffffffffffffffffffffffffffffffff168273ffffffffffffffffffffffffffffffffffffffff160361235a5760006040517f64a0ae920000000000000000000000000000000000000000000000000000000081526004016123519190612759565b60405180910390fd5b600061236883836000611684565b9050600073ffffffffffffffffffffffffffffffffffffffff168173ffffffffffffffffffffffffffffffffffffffff16146123dc5760006040517f73c6ac6e0000000000000000000000000000000000000000000000000000000081526004016123d39190612759565b60405180910390fd5b505050565b600080600090507a184f03e93ff9f4daa797ed6e38ed64bf6a1f010000000000000000831061243f577a184f03e93ff9f4daa797ed6e38ed64bf6a1f0100000000000000008381612435576124346134d2565b5b0492506040810190505b6d04ee2d6d415b85acef8100000000831061247c576d04ee2d6d415b85acef81000000008381612472576124716134d2565b5b0492506020810190505b662386f26fc1000083106124ab57662386f26fc1000083816124a1576124a06134d2565b5b0492506010810190505b6305f5e10083106124d4576305f5e10083816124ca576124c96134d2565b5b0492506008810190505b61271083106124f95761271083816124ef576124ee6134d2565b5b0492506004810190505b6064831061251c5760648381612512576125116134d2565b5b0492506002810190505b600a831061252b576001810190505b80915050919050565b6000604051905090565b600080fd5b600080fd5b60007fffffffff0000000000000000000000000000000000000000000000000000000082169050919050565b61257d81612548565b811461258857600080fd5b50565b60008135905061259a81612574565b92915050565b6000602082840312156125b6576125b561253e565b5b60006125c48482850161258b565b91505092915050565b60008115159050919050565b6125e2816125cd565b82525050565b60006020820190506125fd60008301846125d9565b92915050565b600081519050919050565b600082825260208201905092915050565b60005b8381101561263d578082015181840152602081019050612622565b60008484015250505050565b6000601f19601f8301169050919050565b600061266582612603565b61266f818561260e565b935061267f81856020860161261f565b61268881612649565b840191505092915050565b600060208201905081810360008301526126ad818461265a565b905092915050565b6000819050919050565b6126c8816126b5565b81146126d357600080fd5b50565b6000813590506126e5816126bf565b92915050565b6000602082840312156127015761270061253e565b5b600061270f848285016126d6565b91505092915050565b600073ffffffffffffffffffffffffffffffffffffffff82169050919050565b600061274382612718565b9050919050565b61275381612738565b82525050565b600060208201905061276e600083018461274a565b92915050565b61277d81612738565b811461278857600080fd5b50565b60008135905061279a81612774565b92915050565b600080fd5b600080fd5b7f4e487b7100000000000000000000000000000000000000000000000000000000600052604160045260246000fd5b6127e282612649565b810181811067ffffffffffffffff82111715612801576128006127aa565b5b80604052505050565b6000612814612534565b905061282082826127d9565b919050565b600067ffffffffffffffff8211156128405761283f6127aa565b5b61284982612649565b9050602081019050919050565b82818337600083830152505050565b600061287861287384612825565b61280a565b905082815260208101848484011115612894576128936127a5565b5b61289f848285612856565b509392505050565b600082601f8301126128bc576128bb6127a0565b5b81356128cc848260208601612865565b91505092915050565b600080604083850312156128ec576128eb61253e565b5b60006128fa8582860161278b565b925050602083013567ffffffffffffffff81111561291b5761291a612543565b5b612927858286016128a7565b9150509250929050565b600080604083850312156129485761294761253e565b5b60006129568582860161278b565b9250506020612967858286016126d6565b9150509250929050565b6000602082840312156129875761298661253e565b5b60006129958482850161278b565b91505092915050565b6129a7816126b5565b82525050565b60006020820190506129c2600083018461299e565b92915050565b6000806000606084860312156129e1576129e061253e565b5b60006129ef8682870161278b565b9350506020612a008682870161278b565b9250506040612a11868287016126d6565b9150509250925092565b600081519050919050565b600082825260208201905092915050565b6000819050602082019050919050565b612a5081612738565b82525050565b612a5f816126b5565b82525050565b600082825260208201905092915050565b6000612a8182612603565b612a8b8185612a65565b9350612a9b81856020860161261f565b612aa481612649565b840191505092915050565b600060c083016000830151612ac76000860182612a47565b506020830151612ada6020860182612a56565b506040830151612aed6040860182612a56565b5060608301518482036060860152612b058282612a76565b91505060808301518482036080860152612b1f8282612a76565b91505060a0830151612b3460a0860182612a56565b508091505092915050565b6000612b4b8383612aaf565b905092915050565b6000602082019050919050565b6000612b6b82612a1b565b612b758185612a26565b935083602082028501612b8785612a37565b8060005b85811015612bc35784840389528151612ba48582612b3f565b9450612baf83612b53565b925060208a01995050600181019050612b8b565b50829750879550505050505092915050565b60006020820190508181036000830152612bef8184612b60565b905092915050565b612c00816125cd565b8114612c0b57600080fd5b50565b600081359050612c1d81612bf7565b92915050565b60008060408385031215612c3a57612c3961253e565b5b6000612c488582860161278b565b9250506020612c5985828601612c0e565b9150509250929050565b60008060008060808587031215612c7d57612c7c61253e565b5b6000612c8b878288016126d6565b945050602085013567ffffffffffffffff811115612cac57612cab612543565b5b612cb8878288016128a7565b935050604085013567ffffffffffffffff811115612cd957612cd8612543565b5b612ce5878288016128a7565b9250506060612cf68782880161278b565b91505092959194509250565b600067ffffffffffffffff821115612d1d57612d1c6127aa565b5b612d2682612649565b9050602081019050919050565b6000612d46612d4184612d02565b61280a565b905082815260208101848484011115612d6257612d616127a5565b5b612d6d848285612856565b509392505050565b600082601f830112612d8a57612d896127a0565b5b8135612d9a848260208601612d33565b91505092915050565b60008060008060808587031215612dbd57612dbc61253e565b5b6000612dcb8782880161278b565b9450506020612ddc8782880161278b565b9350506040612ded878288016126d6565b925050606085013567ffffffffffffffff811115612e0e57612e0d612543565b5b612e1a87828801612d75565b91505092959194509250565b600060c082019050612e3b600083018961274a565b612e48602083018861299e565b612e55604083018761299e565b8181036060830152612e67818661265a565b90508181036080830152612e7b818561265a565b9050612e8a60a083018461299e565b979650505050505050565b600081519050919050565b600082825260208201905092915050565b6000819050602082019050919050565b6000612ecd8383612a47565b60208301905092915050565b6000602082019050919050565b6000612ef182612e95565b612efb8185612ea0565b9350612f0683612eb1565b8060005b83811015612f37578151612f1e8882612ec1565b9750612f2983612ed9565b925050600181019050612f0a565b5085935050505092915050565b60006020820190508181036000830152612f5e8184612ee6565b905092915050565b60008060408385031215612f7d57612f7c61253e565b5b6000612f8b8582860161278b565b9250506020612f9c8582860161278b565b9150509250929050565b7f4e487b7100000000000000000000000000000000000000000000000000000000600052602260045260246000fd5b60006002820490506001821680612fed57607f821691505b60208210810361300057612fff612fa6565b5b50919050565b60008190508160005260206000209050919050565b60006020601f8301049050919050565b600082821b905092915050565b6000600883026130687fffffffffffffffffffffffffffffffffffffffffffffffffffffffffffffffff8261302b565b613072868361302b565b95508019841693508086168417925050509392505050565b6000819050919050565b60006130af6130aa6130a5846126b5565b61308a565b6126b5565b9050919050565b6000819050919050565b6130c983613094565b6130dd6130d5826130b6565b848454613038565b825550505050565b600090565b6130f26130e5565b6130fd8184846130c0565b505050565b5b81811015613121576131166000826130ea565b600181019050613103565b5050565b601f8211156131665761313781613006565b6131408461301b565b8101602085101561314f578190505b61316361315b8561301b565b830182613102565b50505b505050565b600082821c905092915050565b60006131896000198460080261316b565b1980831691505092915050565b60006131a28383613178565b9150826002028217905092915050565b6131bb82612603565b67ffffffffffffffff8111156131d4576131d36127aa565b5b6131de8254612fd5565b6131e9828285613125565b600060209050601f83116001811461321c576000841561320a578287015190505b6132148582613196565b86555061327c565b601f19841661322a86613006565b60005b828110156132525784890151825560018201915060208501945060208101905061322d565b8683101561326f578489015161326b601f891682613178565b8355505b6001600288020188555050505b505050505050565b6000606082019050613299600083018661274a565b6132a6602083018561299e565b6132b3604083018461274a565b949350505050565b7f4e487b7100000000000000000000000000000000000000000000000000000000600052601160045260246000fd5b60006132f5826126b5565b9150613300836126b5565b9250828201905080821115613318576133176132bb565b5b92915050565b6000613329826126b5565b91507fffffffffffffffffffffffffffffffffffffffffffffffffffffffffffffffff820361335b5761335a6132bb565b5b600182019050919050565b600081905092915050565b600061337c82612603565b6133868185613366565b935061339681856020860161261f565b80840191505092915050565b60006133ae8285613371565b91506133ba8284613371565b91508190509392505050565b600081519050919050565b600082825260208201905092915050565b60006133ed826133c6565b6133f781856133d1565b935061340781856020860161261f565b61341081612649565b840191505092915050565b6000608082019050613430600083018761274a565b61343d602083018661274a565b61344a604083018561299e565b818103606083015261345c81846133e2565b905095945050505050565b60008151905061347681612574565b92915050565b6000602082840312156134925761349161253e565b5b60006134a084828501613467565b91505092915050565b60006040820190506134be600083018561274a565b6134cb602083018461299e565b9392505050565b7f4e487b7100000000000000000000000000000000000000000000000000000000600052601260045260246000fdfea2646970667358221220aef1bdfbd2fc0af449b8bca9ede6e001a49eda92665672736557405b27026cd464736f6c634300081c0033",
  "linkReferences": {},
  "deployedLinkReferences": {}
}