{
  "_format": "hh-sol-artifact-1",
  "contractName": "BaseArena",
  "sourceName": "contracts/BaseArena.sol",
  "abi": [
    {
      "inputs": [],
      "stateMutability": "nonpayable",
      "type": "constructor"
    },
    {
      "inputs": [
        {
          "internalType": "address",
          "name": "sender",
          "type": "address"
        },
        {
          "internalType": "uint256",
          "name": "tokenId",
          "type": "uint256"
        },
        {
          "internalType": "address",
          "name": "owner",
          "type": "address"
        }
      ],
      "name": "ERC721IncorrectOwner",
      "type": "error"
    },
    {
      "inputs": [
        {
          "internalType": "address",
          "name": "operator",
          "type": "address"
        },
        {
          "internalType": "uint256",
          "name": "tokenId",
          "type": "uint256"
        }
      ],
      "name": "ERC721InsufficientApproval",
      "type": "error"
    },
    {
      "inputs": [
        {
          "internalType": "address",
          "name": "approver",
          "type": "address"
        }
      ],
      "name": "ERC721InvalidApprover",
      "type": "error"
    },
    {
      "inputs": [
        {
          "internalType": "address",
          "name": "operator",
          "type": "address"
        }
      ],
      "name": "ERC721InvalidOperator",
      "type": "error"
    },
    {
      "inputs": [
        {
          "internalType": "address",
          "name": "owner",
          "type": "address"
        }
      ],
      "name": "ERC721InvalidOwner",
      "type": "error"
    },
    {
      "inputs": [
        {
          "internalType": "address",
          "name": "receiver",
          "type": "address"
        }
      ],
      "name": "ERC721InvalidReceiver",
      "type": "error"
    },
    {
      "inputs": [
        {
          "internalType": "address",
          "name": "sender",
          "type": "address"
        }
      ],
      "name": "ERC721InvalidSender",
      "type": "error"
    },
    {
      "inputs": [
        {
          "internalType": "uint256",
          "name": "tokenId",
          "type": "uint256"
        }
      ],
      "name": "ERC721NonexistentToken",
      "type": "error"
    },
    {
      "inputs": [
        {
          "internalType": "address",
          "name": "owner",
          "type": "address"
        }
      ],
      "name": "OwnableInvalidOwner",
      "type": "error"
    },
    {
      "inputs": [
        {
          "internalType": "address",
          "name": "account",
          "type": "address"
        }
      ],
      "name": "OwnableUnauthorizedAccount",
      "type": "error"
    },
    {
      "anonymous": false,
      "inputs": [
        {
          "indexed": true,
          "internalType": "address",
          "name": "owner",
          "type": "address"
        },
        {
          "indexed": true,
          "internalType": "address",
          "name": "approved",
          "type": "address"
        },
        {
          "indexed": true,
          "internalType": "uint256",
          "name": "tokenId",
          "type": "uint256"
        }
      ],
      "name": "Approval",
      "type": "event"
    },
    {
      "anonymous": false,
      "inputs": [
        {
          "indexed": true,
          "internalType": "address",
          "name": "owner",
          "type": "address"
        },
        {
          "indexed": true,
          "internalType": "address",
          "name": "operator",
          "type": "address"
        },
        {
          "indexed": false,
          "internalType": "bool",
          "name": "approved",
          "type": "bool"
        }
      ],
      "name": "ApprovalForAll",
      "type": "event"
    },
    {
      "anonymous": false,
      "inputs": [
        {
          "indexed": false,
          "internalType": "uint256",
          "name": "_fromTokenId",
          "type": "uint256"
        },
        {
          "indexed": false,
          "internalType": "uint256",
          "name": "_toTokenId",
          "type": "uint256"
        }
      ],
      "name": "BatchMetadataUpdate",
      "type": "event"
    },
    {
      "anonymous": false,
      "inputs": [
        {
          "indexed": false,
          "internalType": "uint256",
          "name": "_tokenId",
          "type": "uint256"
        }
      ],
      "name": "MetadataUpdate",
      "type": "event"
    },
    {
      "anonymous": false,
      "inputs": [
        {
          "indexed": true,
          "internalType": "address",
          "name": "previousOwner",
          "type": "address"
        },
        {
          "indexed": true,
          "internalType": "address",
          "name": "newOwner",
          "type": "address"
        }
      ],
      "name": "OwnershipTransferred",
      "type": "event"
    },
    {
      "anonymous": false,
      "inputs": [
        {
          "indexed": true,
          "internalType": "address",
          "name": "from",
          "type": "address"
        },
        {
          "indexed": true,
          "internalType": "address",
          "name": "to",
          "type": "address"
        },
        {
          "indexed": true,
          "internalType": "uint256",
          "name": "tokenId",
          "type": "uint256"
        }
      ],
      "name": "Transfer",
      "type": "event"
    },
    {
      "inputs": [
        {
          "internalType": "uint256",
          "name": "",
          "type": "uint256"
        }
      ],
      "name": "all_users",
      "outputs": [
        {
          "internalType": "address",
          "name": "",
          "type": "address"
        }
      ],
      "stateMutability": "view",
      "type": "function"
    },
    {
      "inputs": [
        {
          "internalType": "address",
          "name": "to",
          "type": "address"
        },
        {
          "internalType": "uint256",
          "name": "tokenId",
          "type": "uint256"
        }
      ],
      "name": "approve",
      "outputs": [],
      "stateMutability": "nonpayable",
      "type": "function"
    },
    {
      "inputs": [
        {
          "internalType": "address",
          "name": "owner",
          "type": "address"
        }
      ],
      "name": "balanceOf",
      "outputs": [
        {
          "internalType": "uint256",
          "name": "",
          "type": "uint256"
        }
      ],
      "stateMutability": "view",
      "type": "function"
    },
    {
      "inputs": [
        {
          "internalType": "address",
          "name": "",
          "type": "address"
        },
        {
          "internalType": "uint256",
          "name": "",
          "type": "uint256"
        }
      ],
      "name": "games_of_user",
      "outputs": [
        {
          "internalType": "address",
          "name": "user",
          "type": "address"
        },
        {
          "internalType": "uint256",
          "name": "reputationScore",
          "type": "uint256"
        },
        {
          "internalType": "uint256",
          "name": "rewardsEarned",
          "type": "uint256"
        },
        {
          "internalType": "string",
          "name": "oneLiner",
          "type": "string"
        }
      ],
      "stateMutability": "view",
      "type": "function"
    },
    {
      "inputs": [],
      "name": "getAllUsers",
      "outputs": [
        {
          "internalType": "address[]",
          "name": "",
          "type": "address[]"
        }
      ],
      "stateMutability": "view",
      "type": "function"
    },
    {
      "inputs": [
        {
          "internalType": "uint256",
          "name": "tokenId",
          "type": "uint256"
        }
      ],
      "name": "getApproved",
      "outputs": [
        {
          "internalType": "address",
          "name": "",
          "type": "address"
        }
      ],
      "stateMutability": "view",
      "type": "function"
    },
    {
      "inputs": [
        {
          "internalType": "address",
          "name": "owner",
          "type": "address"
        },
        {
          "internalType": "address",
          "name": "operator",
          "type": "address"
        }
      ],
      "name": "isApprovedForAll",
      "outputs": [
        {
          "internalType": "bool",
          "name": "",
          "type": "bool"
        }
      ],
      "stateMutability": "view",
      "type": "function"
    },
    {
      "inputs": [],
      "name": "name",
      "outputs": [
        {
          "internalType": "string",
          "name": "",
          "type": "string"
        }
      ],
      "stateMutability": "view",
      "type": "function"
    },
    {
      "inputs": [],
      "name": "owner",
      "outputs": [
        {
          "internalType": "address",
          "name": "",
          "type": "address"
        }
      ],
      "stateMutability": "view",
      "type": "function"
    },
    {
      "inputs": [
        {
          "internalType": "uint256",
          "name": "tokenId",
          "type": "uint256"
        }
      ],
      "name": "ownerOf",
      "outputs": [
        {
          "internalType": "address",
          "name": "",
          "type": "address"
        }
      ],
      "stateMutability": "view",
      "type": "function"
    },
    {
      "inputs": [
        {
          "internalType": "address",
          "name": "",
          "type": "address"
        }
      ],
      "name": "percentile",
      "outputs": [
        {
          "internalType": "uint256",
          "name": "",
          "type": "uint256"
        }
      ],
      "stateMutability": "view",
      "type": "function"
    },
    {
      "inputs": [],
      "name": "renounceOwnership",
      "outputs": [],
      "stateMutability": "nonpayable",
      "type": "function"
    },
    {
      "inputs": [
        {
          "internalType": "address",
          "name": "",
          "type": "address"
        }
      ],
      "name": "reputation_score",
      "outputs": [
        {
          "internalType": "uint256",
          "name": "",
          "type": "uint256"
        }
      ],
      "stateMutability": "view",
      "type": "function"
    },
    {
      "inputs": [
        {
          "internalType": "address",
          "name": "",
          "type": "address"
        }
      ],
      "name": "rewards_earned",
      "outputs": [
        {
          "internalType": "uint256",
          "name": "",
          "type": "uint256"
        }
      ],
      "stateMutability": "view",
      "type": "function"
    },
    {
      "inputs": [
        {
          "internalType": "uint256",
          "name": "rewards_earnedUser",
          "type": "uint256"
        },
        {
          "internalType": "string",
          "name": "uri",
          "type": "string"
        },
        {
          "internalType": "address",
          "name": "to",
          "type": "address"
        }
      ],
      "name": "safeMint",
      "outputs": [],
      "stateMutability": "nonpayable",
      "type": "function"
    },
    {
      "inputs": [
        {
          "internalType": "address",
          "name": "from",
          "type": "address"
        },
        {
          "internalType": "address",
          "name": "to",
          "type": "address"
        },
        {
          "internalType": "uint256",
          "name": "tokenId",
          "type": "uint256"
        }
      ],
      "name": "safeTransferFrom",
      "outputs": [],
      "stateMutability": "nonpayable",
      "type": "function"
    },
    {
      "inputs": [
        {
          "internalType": "address",
          "name": "from",
          "type": "address"
        },
        {
          "internalType": "address",
          "name": "to",
          "type": "address"
        },
        {
          "internalType": "uint256",
          "name": "tokenId",
          "type": "uint256"
        },
        {
          "internalType": "bytes",
          "name": "data",
          "type": "bytes"
        }
      ],
      "name": "safeTransferFrom",
      "outputs": [],
      "stateMutability": "nonpayable",
      "type": "function"
    },
    {
      "inputs": [
        {
          "internalType": "address",
          "name": "operator",
          "type": "address"
        },
        {
          "internalType": "bool",
          "name": "approved",
          "type": "bool"
        }
      ],
      "name": "setApprovalForAll",
      "outputs": [],
      "stateMutability": "nonpayable",
      "type": "function"
    },
    {
      "inputs": [
        {
          "internalType": "bytes4",
          "name": "interfaceId",
          "type": "bytes4"
        }
      ],
      "name": "supportsInterface",
      "outputs": [
        {
          "internalType": "bool",
          "name": "",
          "type": "bool"
        }
      ],
      "stateMutability": "view",
      "type": "function"
    },
    {
      "inputs": [],
      "name": "symbol",
      "outputs": [
        {
          "internalType": "string",
          "name": "",
          "type": "string"
        }
      ],
      "stateMutability": "view",
      "type": "function"
    },
    {
      "inputs": [],
      "name": "tokenId",
      "outputs": [
        {
          "internalType": "uint256",
          "name": "",
          "type": "uint256"
        }
      ],
      "stateMutability": "view",
      "type": "function"
    },
    {
      "inputs": [
        {
          "internalType": "uint256",
          "name": "tokenId",
          "type": "uint256"
        }
      ],
      "name": "tokenURI",
      "outputs": [
        {
          "internalType": "string",
          "name": "",
          "type": "string"
        }
      ],
      "stateMutability": "view",
      "type": "function"
    },
    {
      "inputs": [
        {
          "internalType": "address",
          "name": "from",
          "type": "address"
        },
        {
          "internalType": "address",
          "name": "to",
          "type": "address"
        },
        {
          "internalType": "uint256",
          "name": "tokenId",
          "type": "uint256"
        }
      ],
      "name": "transferFrom",
      "outputs": [],
      "stateMutability": "nonpayable",
      "type": "function"
    },
    {
      "inputs": [
        {
          "internalType": "address",
          "name": "newOwner",
          "type": "address"
        }
      ],
      "name": "transferOwnership",
      "outputs": [],
      "stateMutability": "nonpayable",
      "type": "function"
    }
  ],
  "bytecode": "0x608060405234801561001057600080fd5b50336040518060400160405280600981526020017f426173654172656e6100000000000000000000000000000000000000000000008152506040518060400160405280600481526020017f4241524e00000000000000000000000000000000000000000000000000000000815250816000908161008d919061043d565b50806001908161009d919061043d565b505050600073ffffffffffffffffffffffffffffffffffffffff168173ffffffffffffffffffffffffffffffffffffffff16036101125760006040517f1e4fbdf70000000000000000000000000000000000000000000000000000000081526004016101099190610550565b60405180910390fd5b6101218161012760201b60201c565b5061056b565b6000600760009054906101000a900473ffffffffffffffffffffffffffffffffffffffff16905081600760006101000a81548173ffffffffffffffffffffffffffffffffffffffff021916908373ffffffffffffffffffffffffffffffffffffffff1602179055508173ffffffffffffffffffffffffffffffffffffffff168173ffffffffffffffffffffffffffffffffffffffff167f8be0079c531659141344cd1fd0a4f28419497f9722a3daafe3b4186f6b6457e060405160405180910390a35050565b600081519050919050565b7f4e487b7100000000000000000000000000000000000000000000000000000000600052604160045260246000fd5b7f4e487b7100000000000000000000000000000000000000000000000000000000600052602260045260246000fd5b6000600282049050600182168061026e57607f821691505b60208210810361028157610280610227565b5b50919050565b60008190508160005260206000209050919050565b60006020601f8301049050919050565b600082821b905092915050565b6000600883026102e97fffffffffffffffffffffffffffffffffffffffffffffffffffffffffffffffff826102ac565b6102f386836102ac565b95508019841693508086168417925050509392505050565b6000819050919050565b6000819050919050565b600061033a6103356103308461030b565b610315565b61030b565b9050919050565b6000819050919050565b6103548361031f565b61036861036082610341565b8484546102b9565b825550505050565b600090565b61037d610370565b61038881848461034b565b505050565b5b818110156103ac576103a1600082610375565b60018101905061038e565b5050565b601f8211156103f1576103c281610287565b6103cb8461029c565b810160208510156103da578190505b6103ee6103e68561029c565b83018261038d565b50505b505050565b600082821c905092915050565b6000610414600019846008026103f6565b1980831691505092915050565b600061042d8383610403565b9150826002028217905092915050565b610446826101ed565b67ffffffffffffffff81111561045f5761045e6101f8565b5b6104698254610256565b6104748282856103b0565b600060209050601f8311600181146104a75760008415610495578287015190505b61049f8582610421565b865550610507565b601f1984166104b586610287565b60005b828110156104dd578489015182556001820191506020850194506020810190506104b8565b868310156104fa57848901516104f6601f891682610403565b8355505b6001600288020188555050505b505050505050565b600073ffffffffffffffffffffffffffffffffffffffff82169050919050565b600061053a8261050f565b9050919050565b61054a8161052f565b82525050565b60006020820190506105656000830184610541565b92915050565b612c6c8061057a6000396000f3fe608060405234801561001057600080fd5b50600436106101585760003560e01c806370a08231116100c3578063c87b56dd1161007c578063c87b56dd146103d7578063cc01706a14610407578063e2842d791461043a578063e96551ca14610458578063e985e9c514610488578063f2fde38b146104b857610158565b806370a0823114610329578063715018a6146103595780638da5cb5b1461036357806395d89b4114610381578063a22cb4651461039f578063b88d4fde146103bb57610158565b806323b872dd1161011557806323b872dd1461024557806342842e0e14610261578063535a1af51461027d5780636352211e146102ad57806367dac2a0146102dd5780636820e3c91461030d57610158565b806301ffc9a71461015d57806306fdde031461018d578063081812fc146101ab578063095ea7b3146101db578063120f9ec2146101f757806317d70f7c14610227575b600080fd5b61017760048036038101906101729190611f51565b6104d4565b6040516101849190611f99565b60405180910390f35b610195610535565b6040516101a29190612044565b60405180910390f35b6101c560048036038101906101c0919061209c565b6105c7565b6040516101d2919061210a565b60405180910390f35b6101f560048036038101906101f09190612151565b6105e3565b005b610211600480360381019061020c9190612191565b6105f9565b60405161021e91906121cd565b60405180910390f35b61022f610611565b60405161023c91906121cd565b60405180910390f35b61025f600480360381019061025a91906121e8565b610617565b005b61027b600480360381019061027691906121e8565b610719565b005b61029760048036038101906102929190612191565b610739565b6040516102a491906121cd565b60405180910390f35b6102c760048036038101906102c2919061209c565b610751565b6040516102d4919061210a565b60405180910390f35b6102f760048036038101906102f2919061209c565b610763565b604051610304919061210a565b60405180910390f35b61032760048036038101906103229190612370565b6107a2565b005b610343600480360381019061033e9190612191565b6108e7565b60405161035091906121cd565b60405180910390f35b6103616109a1565b005b61036b6109b5565b604051610378919061210a565b60405180910390f35b6103896109df565b6040516103969190612044565b60405180910390f35b6103b960048036038101906103b4919061240b565b610a71565b005b6103d560048036038101906103d091906124ec565b610a87565b005b6103f160048036038101906103ec919061209c565b610aac565b6040516103fe9190612044565b60405180910390f35b610421600480360381019061041c9190612151565b610bbf565b604051610431949392919061256f565b60405180910390f35b610442610cb4565b60405161044f9190612679565b60405180910390f35b610472600480360381019061046d9190612191565b610d42565b60405161047f91906121cd565b60405180910390f35b6104a2600480360381019061049d919061269b565b610d5a565b6040516104af9190611f99565b60405180910390f35b6104d260048036038101906104cd9190612191565b610dee565b005b6000634906490660e01b7bffffffffffffffffffffffffffffffffffffffffffffffffffffffff1916827bffffffffffffffffffffffffffffffffffffffffffffffffffffffff1916148061052e575061052d82610e74565b5b9050919050565b6060600080546105449061270a565b80601f01602080910402602001604051908101604052809291908181526020018280546105709061270a565b80156105bd5780601f10610592576101008083540402835291602001916105bd565b820191906000526020600020905b8154815290600101906020018083116105a057829003601f168201915b5050505050905090565b60006105d282610f56565b506105dc82610fde565b9050919050565b6105f582826105f061101b565b611023565b5050565b60096020528060005260406000206000915090505481565b600c5481565b600073ffffffffffffffffffffffffffffffffffffffff168273ffffffffffffffffffffffffffffffffffffffff16036106895760006040517f64a0ae92000000000000000000000000000000000000000000000000000000008152600401610680919061210a565b60405180910390fd5b600061069d838361069861101b565b611035565b90508373ffffffffffffffffffffffffffffffffffffffff168173ffffffffffffffffffffffffffffffffffffffff1614610713578382826040517f64283d7b00000000000000000000000000000000000000000000000000000000815260040161070a9392919061273b565b60405180910390fd5b50505050565b61073483838360405180602001604052806000815250610a87565b505050565b600a6020528060005260406000206000915090505481565b600061075c82610f56565b9050919050565b600d818154811061077357600080fd5b906000526020600020016000915054906101000a900473ffffffffffffffffffffffffffffffffffffffff1681565b6001600860008373ffffffffffffffffffffffffffffffffffffffff1673ffffffffffffffffffffffffffffffffffffffff16815260200190815260200160002060008282546107f291906127a1565b9250508190555082600960008373ffffffffffffffffffffffffffffffffffffffff1673ffffffffffffffffffffffffffffffffffffffff168152602001908152602001600020600082825461084891906127a1565b92505081905550600c6000815480929190610862906127d5565b919050555061087381600c5461124f565b61087f600c548361126d565b600d819080600181540180825580915050600190039060005260206000200160009091909190916101000a81548173ffffffffffffffffffffffffffffffffffffffff021916908373ffffffffffffffffffffffffffffffffffffffff160217905550505050565b60008073ffffffffffffffffffffffffffffffffffffffff168273ffffffffffffffffffffffffffffffffffffffff160361095a5760006040517f89c62b64000000000000000000000000000000000000000000000000000000008152600401610951919061210a565b60405180910390fd5b600360008373ffffffffffffffffffffffffffffffffffffffff1673ffffffffffffffffffffffffffffffffffffffff168152602001908152602001600020549050919050565b6109a96112c9565b6109b36000611350565b565b6000600760009054906101000a900473ffffffffffffffffffffffffffffffffffffffff16905090565b6060600180546109ee9061270a565b80601f0160208091040260200160405190810160405280929190818152602001828054610a1a9061270a565b8015610a675780601f10610a3c57610100808354040283529160200191610a67565b820191906000526020600020905b815481529060010190602001808311610a4a57829003601f168201915b5050505050905090565b610a83610a7c61101b565b8383611416565b5050565b610a92848484610617565b610aa6610a9d61101b565b85858585611585565b50505050565b6060610ab782610f56565b506000600660008481526020019081526020016000208054610ad89061270a565b80601f0160208091040260200160405190810160405280929190818152602001828054610b049061270a565b8015610b515780601f10610b2657610100808354040283529160200191610b51565b820191906000526020600020905b815481529060010190602001808311610b3457829003601f168201915b505050505090506000610b62611736565b90506000815103610b77578192505050610bba565b600082511115610bac578082604051602001610b94929190612859565b60405160208183030381529060405292505050610bba565b610bb58461174d565b925050505b919050565b600b6020528160005260406000208181548110610bdb57600080fd5b9060005260206000209060040201600091509150508060000160009054906101000a900473ffffffffffffffffffffffffffffffffffffffff1690806001015490806002015490806003018054610c319061270a565b80601f0160208091040260200160405190810160405280929190818152602001828054610c5d9061270a565b8015610caa5780601f10610c7f57610100808354040283529160200191610caa565b820191906000526020600020905b815481529060010190602001808311610c8d57829003601f168201915b5050505050905084565b6060600d805480602002602001604051908101604052809291908181526020018280548015610d3857602002820191906000526020600020905b8160009054906101000a900473ffffffffffffffffffffffffffffffffffffffff1673ffffffffffffffffffffffffffffffffffffffff1681526020019060010190808311610cee575b5050505050905090565b60086020528060005260406000206000915090505481565b6000600560008473ffffffffffffffffffffffffffffffffffffffff1673ffffffffffffffffffffffffffffffffffffffff16815260200190815260200160002060008373ffffffffffffffffffffffffffffffffffffffff1673ffffffffffffffffffffffffffffffffffffffff16815260200190815260200160002060009054906101000a900460ff16905092915050565b610df66112c9565b600073ffffffffffffffffffffffffffffffffffffffff168173ffffffffffffffffffffffffffffffffffffffff1603610e685760006040517f1e4fbdf7000000000000000000000000000000000000000000000000000000008152600401610e5f919061210a565b60405180910390fd5b610e7181611350565b50565b60007f80ac58cd000000000000000000000000000000000000000000000000000000007bffffffffffffffffffffffffffffffffffffffffffffffffffffffff1916827bffffffffffffffffffffffffffffffffffffffffffffffffffffffff19161480610f3f57507f5b5e139f000000000000000000000000000000000000000000000000000000007bffffffffffffffffffffffffffffffffffffffffffffffffffffffff1916827bffffffffffffffffffffffffffffffffffffffffffffffffffffffff1916145b80610f4f5750610f4e826117b6565b5b9050919050565b600080610f6283611820565b9050600073ffffffffffffffffffffffffffffffffffffffff168173ffffffffffffffffffffffffffffffffffffffff1603610fd557826040517f7e273289000000000000000000000000000000000000000000000000000000008152600401610fcc91906121cd565b60405180910390fd5b80915050919050565b60006004600083815260200190815260200160002060009054906101000a900473ffffffffffffffffffffffffffffffffffffffff169050919050565b600033905090565b611030838383600161185d565b505050565b60008061104184611820565b9050600073ffffffffffffffffffffffffffffffffffffffff168373ffffffffffffffffffffffffffffffffffffffff161461108357611082818486611a22565b5b600073ffffffffffffffffffffffffffffffffffffffff168173ffffffffffffffffffffffffffffffffffffffff1614611114576110c560008560008061185d565b6001600360008373ffffffffffffffffffffffffffffffffffffffff1673ffffffffffffffffffffffffffffffffffffffff168152602001908152602001600020600082825403925050819055505b600073ffffffffffffffffffffffffffffffffffffffff168573ffffffffffffffffffffffffffffffffffffffff1614611197576001600360008773ffffffffffffffffffffffffffffffffffffffff1673ffffffffffffffffffffffffffffffffffffffff168152602001908152602001600020600082825401925050819055505b846002600086815260200190815260200160002060006101000a81548173ffffffffffffffffffffffffffffffffffffffff021916908373ffffffffffffffffffffffffffffffffffffffff160217905550838573ffffffffffffffffffffffffffffffffffffffff168273ffffffffffffffffffffffffffffffffffffffff167fddf252ad1be2c89b69c2b068fc378daa952ba7f163c4a11628f55a4df523b3ef60405160405180910390a4809150509392505050565b611269828260405180602001604052806000815250611ae6565b5050565b8060066000848152602001908152602001600020908161128d9190612a29565b507ff8e1a15aba9398e019f0b49df1a4fde98ee17ae345cb5f6b5e2c27f5033e8ce7826040516112bd91906121cd565b60405180910390a15050565b6112d161101b565b73ffffffffffffffffffffffffffffffffffffffff166112ef6109b5565b73ffffffffffffffffffffffffffffffffffffffff161461134e5761131261101b565b6040517f118cdaa7000000000000000000000000000000000000000000000000000000008152600401611345919061210a565b60405180910390fd5b565b6000600760009054906101000a900473ffffffffffffffffffffffffffffffffffffffff16905081600760006101000a81548173ffffffffffffffffffffffffffffffffffffffff021916908373ffffffffffffffffffffffffffffffffffffffff1602179055508173ffffffffffffffffffffffffffffffffffffffff168173ffffffffffffffffffffffffffffffffffffffff167f8be0079c531659141344cd1fd0a4f28419497f9722a3daafe3b4186f6b6457e060405160405180910390a35050565b600073ffffffffffffffffffffffffffffffffffffffff168273ffffffffffffffffffffffffffffffffffffffff160361148757816040517f5b08ba1800000000000000000000000000000000000000000000000000000000815260040161147e919061210a565b60405180910390fd5b80600560008573ffffffffffffffffffffffffffffffffffffffff1673ffffffffffffffffffffffffffffffffffffffff16815260200190815260200160002060008473ffffffffffffffffffffffffffffffffffffffff1673ffffffffffffffffffffffffffffffffffffffff16815260200190815260200160002060006101000a81548160ff0219169083151502179055508173ffffffffffffffffffffffffffffffffffffffff168373ffffffffffffffffffffffffffffffffffffffff167f17307eab39ab6107e8899845ad3d59bd9653f200f220920489ca2b5937696c31836040516115789190611f99565b60405180910390a3505050565b60008373ffffffffffffffffffffffffffffffffffffffff163b111561172f578273ffffffffffffffffffffffffffffffffffffffff1663150b7a02868685856040518563ffffffff1660e01b81526004016115e49493929190612b50565b6020604051808303816000875af192505050801561162057506040513d601f19601f8201168201806040525081019061161d9190612bb1565b60015b6116a4573d8060008114611650576040519150601f19603f3d011682016040523d82523d6000602084013e611655565b606091505b50600081510361169c57836040517f64a0ae92000000000000000000000000000000000000000000000000000000008152600401611693919061210a565b60405180910390fd5b805181602001fd5b63150b7a0260e01b7bffffffffffffffffffffffffffffffffffffffffffffffffffffffff1916817bffffffffffffffffffffffffffffffffffffffffffffffffffffffff19161461172d57836040517f64a0ae92000000000000000000000000000000000000000000000000000000008152600401611724919061210a565b60405180910390fd5b505b5050505050565b606060405180602001604052806000815250905090565b606061175882610f56565b506000611763611736565b9050600081511161178357604051806020016040528060008152506117ae565b8061178d84611b0a565b60405160200161179e929190612859565b6040516020818303038152906040525b915050919050565b60007f01ffc9a7000000000000000000000000000000000000000000000000000000007bffffffffffffffffffffffffffffffffffffffffffffffffffffffff1916827bffffffffffffffffffffffffffffffffffffffffffffffffffffffff1916149050919050565b60006002600083815260200190815260200160002060009054906101000a900473ffffffffffffffffffffffffffffffffffffffff169050919050565b80806118965750600073ffffffffffffffffffffffffffffffffffffffff168273ffffffffffffffffffffffffffffffffffffffff1614155b156119ca5760006118a684610f56565b9050600073ffffffffffffffffffffffffffffffffffffffff168373ffffffffffffffffffffffffffffffffffffffff161415801561191157508273ffffffffffffffffffffffffffffffffffffffff168173ffffffffffffffffffffffffffffffffffffffff1614155b801561192457506119228184610d5a565b155b1561196657826040517fa9fbf51f00000000000000000000000000000000000000000000000000000000815260040161195d919061210a565b60405180910390fd5b81156119c857838573ffffffffffffffffffffffffffffffffffffffff168273ffffffffffffffffffffffffffffffffffffffff167f8c5be1e5ebec7d5bd14f71427d1e84f3dd0314c0f7b2291e5b200ac8c7c3b92560405160405180910390a45b505b836004600085815260200190815260200160002060006101000a81548173ffffffffffffffffffffffffffffffffffffffff021916908373ffffffffffffffffffffffffffffffffffffffff16021790555050505050565b611a2d838383611bd8565b611ae157600073ffffffffffffffffffffffffffffffffffffffff168373ffffffffffffffffffffffffffffffffffffffff1603611aa257806040517f7e273289000000000000000000000000000000000000000000000000000000008152600401611a9991906121cd565b60405180910390fd5b81816040517f177e802f000000000000000000000000000000000000000000000000000000008152600401611ad8929190612bde565b60405180910390fd5b505050565b611af08383611c99565b611b05611afb61101b565b6000858585611585565b505050565b606060006001611b1984611d92565b01905060008167ffffffffffffffff811115611b3857611b37612245565b5b6040519080825280601f01601f191660200182016040528015611b6a5781602001600182028036833780820191505090505b509050600082602001820190505b600115611bcd578080600190039150507f3031323334353637383961626364656600000000000000000000000000000000600a86061a8153600a8581611bc157611bc0612c07565b5b04945060008503611b78575b819350505050919050565b60008073ffffffffffffffffffffffffffffffffffffffff168373ffffffffffffffffffffffffffffffffffffffff1614158015611c9057508273ffffffffffffffffffffffffffffffffffffffff168473ffffffffffffffffffffffffffffffffffffffff161480611c515750611c508484610d5a565b5b80611c8f57508273ffffffffffffffffffffffffffffffffffffffff16611c7783610fde565b73ffffffffffffffffffffffffffffffffffffffff16145b5b90509392505050565b600073ffffffffffffffffffffffffffffffffffffffff168273ffffffffffffffffffffffffffffffffffffffff1603611d0b5760006040517f64a0ae92000000000000000000000000000000000000000000000000000000008152600401611d02919061210a565b60405180910390fd5b6000611d1983836000611035565b9050600073ffffffffffffffffffffffffffffffffffffffff168173ffffffffffffffffffffffffffffffffffffffff1614611d8d5760006040517f73c6ac6e000000000000000000000000000000000000000000000000000000008152600401611d84919061210a565b60405180910390fd5b505050565b600080600090507a184f03e93ff9f4daa797ed6e38ed64bf6a1f0100000000000000008310611df0577a184f03e93ff9f4daa797ed6e38ed64bf6a1f0100000000000000008381611de657611de5612c07565b5b0492506040810190505b6d04ee2d6d415b85acef81000000008310611e2d576d04ee2d6d415b85acef81000000008381611e2357611e22612c07565b5b0492506020810190505b662386f26fc100008310611e5c57662386f26fc100008381611e5257611e51612c07565b5b0492506010810190505b6305f5e1008310611e85576305f5e1008381611e7b57611e7a612c07565b5b0492506008810190505b6127108310611eaa576127108381611ea057611e9f612c07565b5b0492506004810190505b60648310611ecd5760648381611ec357611ec2612c07565b5b0492506002810190505b600a8310611edc576001810190505b80915050919050565b6000604051905090565b600080fd5b600080fd5b60007fffffffff0000000000000000000000000000000000000000000000000000000082169050919050565b611f2e81611ef9565b8114611f3957600080fd5b50565b600081359050611f4b81611f25565b92915050565b600060208284031215611f6757611f66611eef565b5b6000611f7584828501611f3c565b91505092915050565b60008115159050919050565b611f9381611f7e565b82525050565b6000602082019050611fae6000830184611f8a565b92915050565b600081519050919050565b600082825260208201905092915050565b60005b83811015611fee578082015181840152602081019050611fd3565b60008484015250505050565b6000601f19601f8301169050919050565b600061201682611fb4565b6120208185611fbf565b9350612030818560208601611fd0565b61203981611ffa565b840191505092915050565b6000602082019050818103600083015261205e818461200b565b905092915050565b6000819050919050565b61207981612066565b811461208457600080fd5b50565b60008135905061209681612070565b92915050565b6000602082840312156120b2576120b1611eef565b5b60006120c084828501612087565b91505092915050565b600073ffffffffffffffffffffffffffffffffffffffff82169050919050565b60006120f4826120c9565b9050919050565b612104816120e9565b82525050565b600060208201905061211f60008301846120fb565b92915050565b61212e816120e9565b811461213957600080fd5b50565b60008135905061214b81612125565b92915050565b6000806040838503121561216857612167611eef565b5b60006121768582860161213c565b925050602061218785828601612087565b9150509250929050565b6000602082840312156121a7576121a6611eef565b5b60006121b58482850161213c565b91505092915050565b6121c781612066565b82525050565b60006020820190506121e260008301846121be565b92915050565b60008060006060848603121561220157612200611eef565b5b600061220f8682870161213c565b93505060206122208682870161213c565b925050604061223186828701612087565b9150509250925092565b600080fd5b600080fd5b7f4e487b7100000000000000000000000000000000000000000000000000000000600052604160045260246000fd5b61227d82611ffa565b810181811067ffffffffffffffff8211171561229c5761229b612245565b5b80604052505050565b60006122af611ee5565b90506122bb8282612274565b919050565b600067ffffffffffffffff8211156122db576122da612245565b5b6122e482611ffa565b9050602081019050919050565b82818337600083830152505050565b600061231361230e846122c0565b6122a5565b90508281526020810184848401111561232f5761232e612240565b5b61233a8482856122f1565b509392505050565b600082601f8301126123575761235661223b565b5b8135612367848260208601612300565b91505092915050565b60008060006060848603121561238957612388611eef565b5b600061239786828701612087565b935050602084013567ffffffffffffffff8111156123b8576123b7611ef4565b5b6123c486828701612342565b92505060406123d58682870161213c565b9150509250925092565b6123e881611f7e565b81146123f357600080fd5b50565b600081359050612405816123df565b92915050565b6000806040838503121561242257612421611eef565b5b60006124308582860161213c565b9250506020612441858286016123f6565b9150509250929050565b600067ffffffffffffffff82111561246657612465612245565b5b61246f82611ffa565b9050602081019050919050565b600061248f61248a8461244b565b6122a5565b9050828152602081018484840111156124ab576124aa612240565b5b6124b68482856122f1565b509392505050565b600082601f8301126124d3576124d261223b565b5b81356124e384826020860161247c565b91505092915050565b6000806000806080858703121561250657612505611eef565b5b60006125148782880161213c565b94505060206125258782880161213c565b935050604061253687828801612087565b925050606085013567ffffffffffffffff81111561255757612556611ef4565b5b612563878288016124be565b91505092959194509250565b600060808201905061258460008301876120fb565b61259160208301866121be565b61259e60408301856121be565b81810360608301526125b0818461200b565b905095945050505050565b600081519050919050565b600082825260208201905092915050565b6000819050602082019050919050565b6125f0816120e9565b82525050565b600061260283836125e7565b60208301905092915050565b6000602082019050919050565b6000612626826125bb565b61263081856125c6565b935061263b836125d7565b8060005b8381101561266c57815161265388826125f6565b975061265e8361260e565b92505060018101905061263f565b5085935050505092915050565b60006020820190508181036000830152612693818461261b565b905092915050565b600080604083850312156126b2576126b1611eef565b5b60006126c08582860161213c565b92505060206126d18582860161213c565b9150509250929050565b7f4e487b7100000000000000000000000000000000000000000000000000000000600052602260045260246000fd5b6000600282049050600182168061272257607f821691505b602082108103612735576127346126db565b5b50919050565b600060608201905061275060008301866120fb565b61275d60208301856121be565b61276a60408301846120fb565b949350505050565b7f4e487b7100000000000000000000000000000000000000000000000000000000600052601160045260246000fd5b60006127ac82612066565b91506127b783612066565b92508282019050808211156127cf576127ce612772565b5b92915050565b60006127e082612066565b91507fffffffffffffffffffffffffffffffffffffffffffffffffffffffffffffffff820361281257612811612772565b5b600182019050919050565b600081905092915050565b600061283382611fb4565b61283d818561281d565b935061284d818560208601611fd0565b80840191505092915050565b60006128658285612828565b91506128718284612828565b91508190509392505050565b60008190508160005260206000209050919050565b60006020601f8301049050919050565b600082821b905092915050565b6000600883026128df7fffffffffffffffffffffffffffffffffffffffffffffffffffffffffffffffff826128a2565b6128e986836128a2565b95508019841693508086168417925050509392505050565b6000819050919050565b600061292661292161291c84612066565b612901565b612066565b9050919050565b6000819050919050565b6129408361290b565b61295461294c8261292d565b8484546128af565b825550505050565b600090565b61296961295c565b612974818484612937565b505050565b5b818110156129985761298d600082612961565b60018101905061297a565b5050565b601f8211156129dd576129ae8161287d565b6129b784612892565b810160208510156129c6578190505b6129da6129d285612892565b830182612979565b50505b505050565b600082821c905092915050565b6000612a00600019846008026129e2565b1980831691505092915050565b6000612a1983836129ef565b9150826002028217905092915050565b612a3282611fb4565b67ffffffffffffffff811115612a4b57612a4a612245565b5b612a55825461270a565b612a6082828561299c565b600060209050601f831160018114612a935760008415612a81578287015190505b612a8b8582612a0d565b865550612af3565b601f198416612aa18661287d565b60005b82811015612ac957848901518255600182019150602085019450602081019050612aa4565b86831015612ae65784890151612ae2601f8916826129ef565b8355505b6001600288020188555050505b505050505050565b600081519050919050565b600082825260208201905092915050565b6000612b2282612afb565b612b2c8185612b06565b9350612b3c818560208601611fd0565b612b4581611ffa565b840191505092915050565b6000608082019050612b6560008301876120fb565b612b7260208301866120fb565b612b7f60408301856121be565b8181036060830152612b918184612b17565b905095945050505050565b600081519050612bab81611f25565b92915050565b600060208284031215612bc757612bc6611eef565b5b6000612bd584828501612b9c565b91505092915050565b6000604082019050612bf360008301856120fb565b612c0060208301846121be565b9392505050565b7f4e487b7100000000000000000000000000000000000000000000000000000000600052601260045260246000fdfea2646970667358221220273d08c7246e0f8b46b2fe07695794bd06a72ee32c3fba99e03f75d3a50b551664736f6c634300081c0033",
  "linkReferences": {},
  "deployedLinkReferences": {}
}